{
  "_format": "hh-sol-artifact-1",
  "contractName": "LegosCLOB",
  "sourceName": "contracts/core/LegosCLOB.sol",
  "abi": [
    {
      "inputs": [
        {
          "internalType": "address",
          "name": "initialOwner",
          "type": "address"
        }
      ],
      "stateMutability": "nonpayable",
      "type": "constructor"
    },
    {
      "inputs": [],
      "name": "InsufficientCollateral",
      "type": "error"
    },
    {
      "inputs": [],
      "name": "InvalidAmount",
      "type": "error"
    },
    {
      "inputs": [],
      "name": "InvalidAsset",
      "type": "error"
    },
    {
      "inputs": [],
      "name": "InvalidInterestRate",
      "type": "error"
    },
    {
      "inputs": [],
      "name": "InvalidLTV",
      "type": "error"
    },
    {
      "inputs": [],
      "name": "OrderExpired",
      "type": "error"
    },
    {
      "inputs": [],
      "name": "OrderNotActive",
      "type": "error"
    },
    {
      "inputs": [],
      "name": "OrderNotFound",
      "type": "error"
    },
    {
      "inputs": [
        {
          "internalType": "address",
          "name": "owner",
          "type": "address"
        }
      ],
      "name": "OwnableInvalidOwner",
      "type": "error"
    },
    {
      "inputs": [
        {
          "internalType": "address",
          "name": "account",
          "type": "address"
        }
      ],
      "name": "OwnableUnauthorizedAccount",
      "type": "error"
    },
    {
      "inputs": [],
      "name": "ReentrancyGuardReentrantCall",
      "type": "error"
    },
    {
      "inputs": [
        {
          "internalType": "address",
          "name": "token",
          "type": "address"
        }
      ],
      "name": "SafeERC20FailedOperation",
      "type": "error"
    },
    {
      "inputs": [],
      "name": "UnauthorizedAccess",
      "type": "error"
    },
    {
      "anonymous": false,
      "inputs": [
        {
          "indexed": true,
          "internalType": "address",
          "name": "asset",
          "type": "address"
        },
        {
          "indexed": false,
          "internalType": "uint256",
          "name": "newRate",
          "type": "uint256"
        }
      ],
      "name": "BorrowingRateUpdated",
      "type": "event"
    },
    {
      "anonymous": false,
      "inputs": [
        {
          "indexed": true,
          "internalType": "address",
          "name": "user",
          "type": "address"
        },
        {
          "indexed": true,
          "internalType": "address",
          "name": "token",
          "type": "address"
        },
        {
          "indexed": false,
          "internalType": "uint256",
          "name": "amount",
          "type": "uint256"
        }
      ],
      "name": "CollateralDeposited",
      "type": "event"
    },
    {
      "anonymous": false,
      "inputs": [
        {
          "indexed": true,
          "internalType": "address",
          "name": "user",
          "type": "address"
        },
        {
          "indexed": true,
          "internalType": "address",
          "name": "token",
          "type": "address"
        },
        {
          "indexed": false,
          "internalType": "uint256",
          "name": "amount",
          "type": "uint256"
        }
      ],
      "name": "CollateralWithdrawn",
      "type": "event"
    },
    {
      "anonymous": false,
      "inputs": [
        {
          "indexed": true,
          "internalType": "uint256",
          "name": "orderId",
          "type": "uint256"
        },
        {
          "indexed": false,
          "internalType": "uint256",
          "name": "amount",
          "type": "uint256"
        },
        {
          "indexed": false,
          "internalType": "uint256",
          "name": "rate",
          "type": "uint256"
        }
      ],
      "name": "InstantExecution",
      "type": "event"
    },
    {
      "anonymous": false,
      "inputs": [
        {
          "indexed": true,
          "internalType": "uint256",
          "name": "loanId",
          "type": "uint256"
        },
        {
          "indexed": false,
          "internalType": "uint256",
          "name": "interest",
          "type": "uint256"
        }
      ],
      "name": "InterestAccrued",
      "type": "event"
    },
    {
      "anonymous": false,
      "inputs": [
        {
          "indexed": true,
          "internalType": "address",
          "name": "asset",
          "type": "address"
        },
        {
          "indexed": false,
          "internalType": "uint256",
          "name": "newRate",
          "type": "uint256"
        }
      ],
      "name": "LendingRateUpdated",
      "type": "event"
    },
    {
      "anonymous": false,
      "inputs": [
        {
          "indexed": true,
          "internalType": "uint256",
          "name": "loanId",
          "type": "uint256"
        },
        {
          "indexed": true,
          "internalType": "address",
          "name": "liquidator",
          "type": "address"
        },
        {
          "indexed": false,
          "internalType": "uint256",
          "name": "collateralSeized",
          "type": "uint256"
        }
      ],
      "name": "LiquidationExecuted",
      "type": "event"
    },
    {
      "anonymous": false,
      "inputs": [
        {
          "indexed": true,
          "internalType": "uint256",
          "name": "loanId",
          "type": "uint256"
        },
        {
          "indexed": true,
          "internalType": "address",
          "name": "borrower",
          "type": "address"
        },
        {
          "indexed": true,
          "internalType": "address",
          "name": "lender",
          "type": "address"
        },
        {
          "indexed": false,
          "internalType": "uint256",
          "name": "amount",
          "type": "uint256"
        }
      ],
      "name": "LoanCreated",
      "type": "event"
    },
    {
      "anonymous": false,
      "inputs": [
        {
          "indexed": true,
          "internalType": "uint256",
          "name": "loanId",
          "type": "uint256"
        },
        {
          "indexed": false,
          "internalType": "uint256",
          "name": "amount",
          "type": "uint256"
        }
      ],
      "name": "LoanRepaid",
      "type": "event"
    },
    {
      "anonymous": false,
      "inputs": [
        {
          "indexed": true,
          "internalType": "address",
          "name": "asset",
          "type": "address"
        },
        {
          "indexed": false,
          "internalType": "uint256",
          "name": "totalLendVolume",
          "type": "uint256"
        },
        {
          "indexed": false,
          "internalType": "uint256",
          "name": "totalBorrowVolume",
          "type": "uint256"
        }
      ],
      "name": "OrderBookDepthUpdated",
      "type": "event"
    },
    {
      "anonymous": false,
      "inputs": [
        {
          "indexed": true,
          "internalType": "address",
          "name": "asset",
          "type": "address"
        },
        {
          "indexed": true,
          "internalType": "uint256",
          "name": "rate",
          "type": "uint256"
        },
        {
          "indexed": false,
          "internalType": "bool",
          "name": "isLend",
          "type": "bool"
        }
      ],
      "name": "OrderBookUpdated",
      "type": "event"
    },
    {
      "anonymous": false,
      "inputs": [
        {
          "indexed": true,
          "internalType": "uint256",
          "name": "lendOrderId",
          "type": "uint256"
        },
        {
          "indexed": true,
          "internalType": "uint256",
          "name": "borrowOrderId",
          "type": "uint256"
        },
        {
          "indexed": false,
          "internalType": "uint256",
          "name": "amount",
          "type": "uint256"
        }
      ],
      "name": "OrderMatched",
      "type": "event"
    },
    {
      "anonymous": false,
      "inputs": [
        {
          "indexed": true,
          "internalType": "uint256",
          "name": "orderId",
          "type": "uint256"
        },
        {
          "indexed": false,
          "internalType": "uint256",
          "name": "amountFilled",
          "type": "uint256"
        },
        {
          "indexed": false,
          "internalType": "uint256",
          "name": "remaining",
          "type": "uint256"
        }
      ],
      "name": "OrderPartiallyFilled",
      "type": "event"
    },
    {
      "anonymous": false,
      "inputs": [
        {
          "indexed": true,
          "internalType": "uint256",
          "name": "orderId",
          "type": "uint256"
        },
        {
          "indexed": true,
          "internalType": "address",
          "name": "user",
          "type": "address"
        },
        {
          "indexed": false,
          "internalType": "enum ILegosCore.OrderType",
          "name": "orderType",
          "type": "uint8"
        },
        {
          "indexed": false,
          "internalType": "uint256",
          "name": "amount",
          "type": "uint256"
        }
      ],
      "name": "OrderPlaced",
      "type": "event"
    },
    {
      "anonymous": false,
      "inputs": [
        {
          "indexed": true,
          "internalType": "address",
          "name": "previousOwner",
          "type": "address"
        },
        {
          "indexed": true,
          "internalType": "address",
          "name": "newOwner",
          "type": "address"
        }
      ],
      "name": "OwnershipTransferred",
      "type": "event"
    },
    {
      "inputs": [],
      "name": "DEFAULT_LTV",
      "outputs": [
        {
          "internalType": "uint256",
          "name": "",
          "type": "uint256"
        }
      ],
      "stateMutability": "view",
      "type": "function"
    },
    {
      "inputs": [],
      "name": "MAX_INTEREST_RATE",
      "outputs": [
        {
          "internalType": "uint256",
          "name": "",
          "type": "uint256"
        }
      ],
      "stateMutability": "view",
      "type": "function"
    },
    {
      "inputs": [],
      "name": "MIN_ORDER_AMOUNT",
      "outputs": [
        {
          "internalType": "uint256",
          "name": "",
          "type": "uint256"
        }
      ],
      "stateMutability": "view",
      "type": "function"
    },
    {
      "inputs": [
        {
          "internalType": "address",
          "name": "",
          "type": "address"
        },
        {
          "internalType": "uint256",
          "name": "",
          "type": "uint256"
        }
      ],
      "name": "activeBorrowRates",
      "outputs": [
        {
          "internalType": "uint256",
          "name": "",
          "type": "uint256"
        }
      ],
      "stateMutability": "view",
      "type": "function"
    },
    {
      "inputs": [
        {
          "internalType": "address",
          "name": "",
          "type": "address"
        },
        {
          "internalType": "uint256",
          "name": "",
          "type": "uint256"
        }
      ],
      "name": "activeLendRates",
      "outputs": [
        {
          "internalType": "uint256",
          "name": "",
          "type": "uint256"
        }
      ],
      "stateMutability": "view",
      "type": "function"
    },
    {
      "inputs": [
        {
          "internalType": "address",
          "name": "",
          "type": "address"
        }
      ],
      "name": "assetRiskParams",
      "outputs": [
        {
          "internalType": "uint256",
          "name": "maxLTV",
          "type": "uint256"
        },
        {
          "internalType": "uint256",
          "name": "liquidationThreshold",
          "type": "uint256"
        },
        {
          "internalType": "uint256",
          "name": "liquidationPenalty",
          "type": "uint256"
        },
        {
          "internalType": "uint256",
          "name": "minCollateralRatio",
          "type": "uint256"
        },
        {
          "internalType": "bool",
          "name": "isEnabled",
          "type": "bool"
        }
      ],
      "stateMutability": "view",
      "type": "function"
    },
    {
      "inputs": [
        {
          "internalType": "address",
          "name": "",
          "type": "address"
        },
        {
          "internalType": "uint256",
          "name": "",
          "type": "uint256"
        },
        {
          "internalType": "uint256",
          "name": "",
          "type": "uint256"
        }
      ],
      "name": "borrowOrdersByRate",
      "outputs": [
        {
          "internalType": "uint256",
          "name": "",
          "type": "uint256"
        }
      ],
      "stateMutability": "view",
      "type": "function"
    },
    {
      "inputs": [
        {
          "internalType": "uint256",
          "name": "orderId",
          "type": "uint256"
        }
      ],
      "name": "cancelOrder",
      "outputs": [],
      "stateMutability": "nonpayable",
      "type": "function"
    },
    {
      "inputs": [
        {
          "internalType": "address",
          "name": "asset",
          "type": "address"
        },
        {
          "internalType": "uint256",
          "name": "amount",
          "type": "uint256"
        },
        {
          "internalType": "bool",
          "name": "isLend",
          "type": "bool"
        },
        {
          "internalType": "uint256",
          "name": "maxSlippage",
          "type": "uint256"
        },
        {
          "internalType": "address",
          "name": "collateralToken",
          "type": "address"
        },
        {
          "internalType": "uint256",
          "name": "collateralAmount",
          "type": "uint256"
        }
      ],
      "name": "executeMarketOrder",
      "outputs": [
        {
          "internalType": "uint256",
          "name": "executedAmount",
          "type": "uint256"
        },
        {
          "internalType": "uint256",
          "name": "avgRate",
          "type": "uint256"
        }
      ],
      "stateMutability": "nonpayable",
      "type": "function"
    },
    {
      "inputs": [
        {
          "internalType": "address",
          "name": "asset",
          "type": "address"
        }
      ],
      "name": "getBestBorrowingRate",
      "outputs": [
        {
          "internalType": "uint256",
          "name": "",
          "type": "uint256"
        }
      ],
      "stateMutability": "view",
      "type": "function"
    },
    {
      "inputs": [
        {
          "internalType": "address",
          "name": "asset",
          "type": "address"
        }
      ],
      "name": "getBestLendingRate",
      "outputs": [
        {
          "internalType": "uint256",
          "name": "",
          "type": "uint256"
        }
      ],
      "stateMutability": "view",
      "type": "function"
    },
    {
      "inputs": [
        {
          "internalType": "address",
          "name": "asset",
          "type": "address"
        },
        {
          "internalType": "bool",
          "name": "isLend",
          "type": "bool"
        }
      ],
      "name": "getOrderBookDepth",
      "outputs": [
        {
          "internalType": "uint256[]",
          "name": "rates",
          "type": "uint256[]"
        },
        {
          "internalType": "uint256[]",
          "name": "amounts",
          "type": "uint256[]"
        }
      ],
      "stateMutability": "view",
      "type": "function"
    },
    {
      "inputs": [
        {
          "internalType": "address",
          "name": "user",
          "type": "address"
        }
      ],
      "name": "getUserLoans",
      "outputs": [
        {
          "internalType": "uint256[]",
          "name": "",
          "type": "uint256[]"
        }
      ],
      "stateMutability": "view",
      "type": "function"
    },
    {
      "inputs": [
        {
          "internalType": "address",
          "name": "user",
          "type": "address"
        }
      ],
      "name": "getUserOrders",
      "outputs": [
        {
          "internalType": "uint256[]",
          "name": "",
          "type": "uint256[]"
        }
      ],
      "stateMutability": "view",
      "type": "function"
    },
    {
      "inputs": [
        {
          "internalType": "address",
          "name": "",
          "type": "address"
        },
        {
          "internalType": "uint256",
          "name": "",
          "type": "uint256"
        },
        {
          "internalType": "uint256",
          "name": "",
          "type": "uint256"
        }
      ],
      "name": "lendOrdersByRate",
      "outputs": [
        {
          "internalType": "uint256",
          "name": "",
          "type": "uint256"
        }
      ],
      "stateMutability": "view",
      "type": "function"
    },
    {
      "inputs": [
        {
          "internalType": "uint256",
          "name": "",
          "type": "uint256"
        }
      ],
      "name": "loans",
      "outputs": [
        {
          "internalType": "uint256",
          "name": "loanId",
          "type": "uint256"
        },
        {
          "internalType": "address",
          "name": "borrower",
          "type": "address"
        },
        {
          "internalType": "address",
          "name": "lender",
          "type": "address"
        },
        {
          "internalType": "uint256",
          "name": "principalAmount",
          "type": "uint256"
        },
        {
          "internalType": "uint256",
          "name": "remainingPrincipal",
          "type": "uint256"
        },
        {
          "internalType": "uint256",
          "name": "interestRate",
          "type": "uint256"
        },
        {
          "internalType": "uint256",
          "name": "startTime",
          "type": "uint256"
        },
        {
          "internalType": "uint256",
          "name": "duration",
          "type": "uint256"
        },
        {
          "internalType": "uint256",
          "name": "lastUpdateTime",
          "type": "uint256"
        },
        {
          "internalType": "address",
          "name": "collateralToken",
          "type": "address"
        },
        {
          "internalType": "uint256",
          "name": "collateralAmount",
          "type": "uint256"
        },
        {
          "internalType": "uint256",
          "name": "accruedInterest",
          "type": "uint256"
        },
        {
          "internalType": "enum ILegosCore.LoanStatus",
          "name": "status",
          "type": "uint8"
        }
      ],
      "stateMutability": "view",
      "type": "function"
    },
    {
      "inputs": [
        {
          "internalType": "uint256",
          "name": "",
          "type": "uint256"
        }
      ],
      "name": "orders",
      "outputs": [
        {
          "internalType": "uint256",
          "name": "orderId",
          "type": "uint256"
        },
        {
          "internalType": "address",
          "name": "user",
          "type": "address"
        },
        {
          "internalType": "enum ILegosCore.OrderType",
          "name": "orderType",
          "type": "uint8"
        },
        {
          "internalType": "enum ILegosCore.OrderStatus",
          "name": "status",
          "type": "uint8"
        },
        {
          "internalType": "uint256",
          "name": "principalAmount",
          "type": "uint256"
        },
        {
          "internalType": "uint256",
          "name": "remainingAmount",
          "type": "uint256"
        },
        {
          "internalType": "uint256",
          "name": "interestRate",
          "type": "uint256"
        },
        {
          "internalType": "uint256",
          "name": "duration",
          "type": "uint256"
        },
        {
          "internalType": "uint256",
          "name": "maxLTV",
          "type": "uint256"
        },
        {
          "internalType": "address",
          "name": "collateralToken",
          "type": "address"
        },
        {
          "internalType": "uint256",
          "name": "collateralAmount",
          "type": "uint256"
        },
        {
          "internalType": "uint256",
          "name": "timestamp",
          "type": "uint256"
        },
        {
          "internalType": "uint256",
          "name": "expiry",
          "type": "uint256"
        }
      ],
      "stateMutability": "view",
      "type": "function"
    },
    {
      "inputs": [],
      "name": "owner",
      "outputs": [
        {
          "internalType": "address",
          "name": "",
          "type": "address"
        }
      ],
      "stateMutability": "view",
      "type": "function"
    },
    {
      "inputs": [
        {
          "internalType": "address",
          "name": "asset",
          "type": "address"
        },
        {
          "internalType": "uint256",
          "name": "amount",
          "type": "uint256"
        },
        {
          "internalType": "uint256",
          "name": "interestRate",
          "type": "uint256"
        },
        {
          "internalType": "uint256",
          "name": "duration",
          "type": "uint256"
        },
        {
          "internalType": "address",
          "name": "collateralToken",
          "type": "address"
        },
        {
          "internalType": "uint256",
          "name": "collateralAmount",
          "type": "uint256"
        },
        {
          "internalType": "uint256",
          "name": "expiry",
          "type": "uint256"
        }
      ],
      "name": "placeBorrowOrder",
      "outputs": [
        {
          "internalType": "uint256",
          "name": "orderId",
          "type": "uint256"
        }
      ],
      "stateMutability": "nonpayable",
      "type": "function"
    },
    {
      "inputs": [
        {
          "internalType": "address",
          "name": "asset",
          "type": "address"
        },
        {
          "internalType": "uint256",
          "name": "amount",
          "type": "uint256"
        },
        {
          "internalType": "uint256",
          "name": "interestRate",
          "type": "uint256"
        },
        {
          "internalType": "uint256",
          "name": "duration",
          "type": "uint256"
        },
        {
          "internalType": "uint256",
          "name": "maxLTV",
          "type": "uint256"
        },
        {
          "internalType": "address",
          "name": "collateralToken",
          "type": "address"
        },
        {
          "internalType": "uint256",
          "name": "expiry",
          "type": "uint256"
        }
      ],
      "name": "placeLendOrder",
      "outputs": [
        {
          "internalType": "uint256",
          "name": "orderId",
          "type": "uint256"
        }
      ],
      "stateMutability": "nonpayable",
      "type": "function"
    },
    {
      "inputs": [],
      "name": "protocolFee",
      "outputs": [
        {
          "internalType": "uint256",
          "name": "",
          "type": "uint256"
        }
      ],
      "stateMutability": "view",
      "type": "function"
    },
    {
      "inputs": [],
      "name": "renounceOwnership",
      "outputs": [],
      "stateMutability": "nonpayable",
      "type": "function"
    },
    {
      "inputs": [
        {
          "internalType": "address",
          "name": "newOwner",
          "type": "address"
        }
      ],
      "name": "transferOwnership",
      "outputs": [],
      "stateMutability": "nonpayable",
      "type": "function"
    },
    {
      "inputs": [
        {
          "internalType": "address",
          "name": "",
          "type": "address"
        },
        {
          "internalType": "address",
          "name": "",
          "type": "address"
        }
      ],
      "name": "userCollateral",
      "outputs": [
        {
          "internalType": "uint256",
          "name": "",
          "type": "uint256"
        }
      ],
      "stateMutability": "view",
      "type": "function"
    },
    {
      "inputs": [
        {
          "internalType": "address",
          "name": "",
          "type": "address"
        },
        {
          "internalType": "uint256",
          "name": "",
          "type": "uint256"
        }
      ],
      "name": "userLoans",
      "outputs": [
        {
          "internalType": "uint256",
          "name": "",
          "type": "uint256"
        }
      ],
      "stateMutability": "view",
      "type": "function"
    },
    {
      "inputs": [
        {
          "internalType": "address",
          "name": "",
          "type": "address"
        },
        {
          "internalType": "uint256",
          "name": "",
          "type": "uint256"
        }
      ],
      "name": "userOrders",
      "outputs": [
        {
          "internalType": "uint256",
          "name": "",
          "type": "uint256"
        }
      ],
      "stateMutability": "view",
      "type": "function"
    }
  ],
  "bytecode": "0x6080346100d057601f62002b2538819003918201601f19168301916001600160401b038311848410176100d5578084926020946040528339810103126100d057516001600160a01b0390818116908190036100d05780156100b757600080546001600160a01b03198116831782556040519316907f8be0079c531659141344cd1fd0a4f28419497f9722a3daafe3b4186f6b6457e09080a360018055600160025560016003556064600e55612a399081620000ec8239f35b604051631e4fbdf760e01b815260006004820152602490fd5b600080fd5b634e487b7160e01b600052604160045260246000fdfe608080604052600436101561001357600080fd5b60003560e01c90816302bf321f146119aa575080631b9307201461198d5780631befb29d14611948578063294caeb3146119035780632b92a07d146118ae57806334855d14146118915780633df1071b1461165257806340bf2aa41461162f578063479ee32f146115e557806347bde1081461159b5780634e5ee3791461128f578063514fcac71461113f57806363c69f08146110e35780636b95018e146110c0578063715018a6146110675780637cb6c59a1461103c578063856652e914610ff25780638da5cb5b14610fc9578063a85c38ef14610ef2578063abc4b82f14610b71578063b0e21e8a14610b53578063d4047c9514610372578063d8bad5bd1461031a578063e1ec3c6814610236578063eb717d4e146101cb5763f2fde38b1461013d57600080fd5b346101c65760203660031901126101c6576101566119ea565b61015e611aa2565b6001600160a01b039081169081156101ad57600054826001600160601b0360a01b821617600055167f8be0079c531659141344cd1fd0a4f28419497f9722a3daafe3b4186f6b6457e0600080a3005b604051631e4fbdf760e01b815260006004820152602490fd5b600080fd5b346101c65760203660031901126101c6576001600160a01b036101ec6119ea565b16600052600960205260a06040600020805490600181015490600281015460ff60046003840154930154169260405194855260208501526040840152606083015215156080820152f35b346101c65760203660031901126101c65760043560005260056020526040600020805460018060a01b0391826001820154169280600283015416906003830154906004840154600585015460068601549060078701549260088801549460098901541695600a8901549760ff600c600b8c01549b0154169b6040519b8c5260208c015260408b015260608a0152608089015260a088015260c087015260e08601526101008501526101208401526101408301526101608201526004821015610304576101a091610180820152f35b634e487b7160e01b600052602160045260246000fd5b346101c65760403660031901126101c6576103336119ea565b6001600160a01b03166000908152600760205260409020805460243591908210156101c65760209161036491611a74565b90546040519160031b1c8152f35b346101c65760c03660031901126101c65761038b6119ea565b60443580151581036101c65761039f611a00565b906103a8611c53565b670de0b6b3a764000060243510610b41571561079057506103d660243530336001600160a01b038516611b90565b60018060a01b038116600052600d6020526103fe610405604060002060405192838092611ce0565b0382611b10565b61040e81612999565b602435906000916000926000945b8351861080610787575b15610700576001600160a01b0381166000908152600b6020526040902061046f939291906104548887611d1d565b51600052602052610476604060002060405195868092611ce0565b0385611b10565b60005b84518110806106f7575b156106e3576104928186611d1d565b516000526004602052604060002060ff600182015460a81c1660058110156103045780159081156106d8575b506104d3575b506104ce90611ace565b610479565b600390979391949701548088106000146106d35750865b6104f48988611d1d565b519060025461050281611ace565b600255610e10420142116106bd576040519261051d84611add565b81845233602085015260006040850152600060608501528260808501528260a085015260c084015262278d0060e0840152611d4c61010084015260018060a01b038516610120840152600061014084015242610160840152610e10420161018084015280600052600460205260406000208351815560018060a01b0360208501511660018201549060408601516002811015610304576001600160a81b03199092161760a09190911b60ff60a01b161760018201556060840151936005851015610304576104ce956106a4858f61069e908f8f8f6106b09a8f91610692906106b69f948d600a8b9f6106aa9f61061c6106999a60016101809401611b32565b6080810151600285015560a0810151600385015560c0810151600485015560e0810151600585015561010081015160068501556007840160018060a01b03610120830151166001600160601b0360a01b825416179055610140810151600885015561016081015160098501550151910155611d1d565b51906124ac565b611d1d565b51611eef565b90611c76565b96611c76565b98611c83565b93906104c4565b634e487b7160e01b600052601160045260246000fd5b6104ea565b60019150148a6104be565b50956106f191929350611ace565b9461041c565b50831515610483565b6040955091925083801561077d5761071791611f02565b915b80610762575b50505b60007f6670f4b99cd163422fa934f8e3063db297b495b0ba7ef8301d75c795d01a78ca848051858152846020820152a26001805582519182526020820152f35b6107769133906001600160a01b0316611c90565b838061071f565b5050600091610719565b50821515610426565b613a988060243502906024358204146024351517156106bd57612710900460a43510610b2f576107cd60a43530336001600160a01b038516611b90565b336000526008602052604060002060018060a01b03821660005260205260406000206107fc60a4358254611c76565b905560018060a01b038216600052600c6020526103fe610826604060002060405192838092611ce0565b61082f816128eb565b6024356000906000946000955b8451871080610b26575b15610a97576001600160a01b0382166000908152600a6020526040902061088e9291906108738988611d1d565b51600052602052610895604060002060405194858092611ce0565b0384611b10565b60005b8351811080610a8e575b15610a7b576108b18185611d1d565b516000526004602052604060002060ff600182015460a81c166005811015610304578015908115610a70575b506108f2575b506108ed90611ace565b610898565b60030154919590949180831015610a6b5750815b61091d6024356109188360a435611eef565b611f02565b906109288b8a611d1d565b51916002549061093782611ace565b600255610e10420142116106bd576040519361095285611add565b82855233602086015260016040860152600060608601528360808601528360a086015260c085015262278d0060e0850152611d4c61010085015260018060a01b038c1661012085015261014084015242610160840152610e10420161018084015280600052600460205260406000208351815560018060a01b0360208501511660018201549060408601516002811015610304576001600160a81b03199092161760a09190911b60ff60a01b161760018201556060840151936005851015610304576108ed956106a48f61069e8f918896928f8f8f909a610a5261069993610a649f9d89610a5e9f8f9b610a589f61061c600a9360016101809401611b32565b516124ac565b99611c76565b93611c83565b94906108e3565b610906565b60019150148b6108dd565b5096610a88919250611ace565b9561083c565b508415156108a2565b6040965094935090919050838015610b1c57610ab291611f02565b915b81610ac1575b5050610722565b610ad7610b15926109186024359160a435611eef565b903360005260086020528560002060018060a01b03821660005260205285600020610b03838254611c83565b905533906001600160a01b0316611c90565b8380610aba565b5050600091610ab4565b50821515610846565b604051633a23d82560e01b8152600490fd5b60405163162908e360e11b8152600490fd5b346101c65760003660031901126101c6576020600e54604051908152f35b346101c65760e03660031901126101c657610b8a6119ea565b60a4356001600160a01b03811681036101c657610ba5611c53565b670de0b6b3a764000060243510610b41576127108060443511610ee05760843511610ece574260c4351115610ebc57610beb60243530336001600160a01b038616611b90565b60025490610bf882611ace565b60025560405190610c0882611add565b8282523360208301526000604083015260006060830152602435608083015260243560a083015260443560c083015260643560e083015260843561010083015260018060a01b031661012082015260006101408201524261016082015260c4356101808201528160005260046020526040600020928151845560018060a01b0360208301511660018501549060408401516002811015610304576001600160a81b03199092161760a09190911b60ff60a01b1617600185015560608201519060058210156103045784600a6101808695610cea610e4b96600160209b01611b32565b6080810151600285015560a0810151600385015560c0810151600485015560e0810151600585015561010081015160068501556007840160018060a01b03610120830151166001600160601b0360a01b8254161790556101408101516008850155610160810151600985015501519101553360005260068552610d71836040600020611b56565b60018060a01b038116600052600a855260406000206044356000528552610d9c836040600020611b56565b60018060a01b038116600052600c8552610dcf6103fe610dc6604060002060405192838092611ce0565b604435906128af565b15610e97575b60405160018152604435906001600160a01b038316907f1fc93ea60d20e9be63a8382c6d894370d08d96cca1b8b6945ddadae61fb0706a908890a36040516000815260243586820152837f2889ad19f411ddebebecb8b577f9b378f8136f7068eb59b277edd8fe158172c860403393a382611f22565b80610e5f575b505060018055604051908152f35b60407f6670f4b99cd163422fa934f8e3063db297b495b0ba7ef8301d75c795d01a78ca91815190815260443586820152a28083610e51565b60018060a01b038116600052600c8552610eb76044356040600020611b56565b610dd5565b6040516362b439dd60e11b8152600490fd5b604051632f2a24a960e11b8152600490fd5b60405163b770249b60e01b8152600490fd5b346101c65760203660031901126101c6576004356000526004602052604060002080546001820154600283015492600381015491600482015492600583015460068401549060018060a01b03958660078701541693600887015495600a6009890154980154986040519a8b52811660208b015260ff8160a01c169060028210156103045760ff9160408c015260a81c169960058b1015610304576101a09a60608b015260808a015260a089015260c088015260e0870152610100860152610120850152610140840152610160830152610180820152f35b346101c65760003660031901126101c6576000546040516001600160a01b039091168152602090f35b346101c65760403660031901126101c65761100b6119ea565b6001600160a01b03166000908152600660205260409020805460243591908210156101c65760209161036491611a74565b346101c65760203660031901126101c657602061105f61105a6119ea565b611d31565b604051908152f35b346101c65760003660031901126101c657611080611aa2565b600080546001600160a01b0319811682556001600160a01b03167f8be0079c531659141344cd1fd0a4f28419497f9722a3daafe3b4186f6b6457e08280a3005b346101c65760203660031901126101c657602061105f6110de6119ea565b611dfa565b346101c65760203660031901126101c6576001600160a01b036111046119ea565b16600052600660205261113b6103fe611127604060002060405192838092611ce0565b604051918291602083526020830190611a16565b0390f35b346101c65760203660031901126101c657611158611c53565b600435600052600460205260406000206001810180549060018060a01b03918281169033820361127d5760ff8160a81c166005811015610304578015159081611271575b5061125f5760ff60a81b1916600360a81b1780835560a01c60ff166002811015610304576111f85750600383015491826111dc575b505050505b60018055005b8060076111ef9501541691541690611c90565b808080806111d1565b9091600884019182549485611213575b5050505050506111d6565b611254958392600052600860205260076040600020920191838354166000526020526112456040600020918254611c83565b90555416925416905491611c90565b808080808080611208565b604051631d4ecc5b60e01b8152600490fd5b6001915014158661119c565b604051631a27eac360e11b8152600490fd5b346101c65760e03660031901126101c6576112a86119ea565b6112b0611a00565b6112b8611c53565b670de0b6b3a764000060243510610b41576127108060443511610ee0574260c4351115610ebc57613a988060243502906024358204146024351517156106bd570460a43510610b2f576001600160a01b03169061131960a435303385611b90565b336000526008602052604060002082600052602052604060002061134060a4358254611c76565b90556002549061134f82611ace565b6002556040519061135f82611add565b82825260208201933385526001604084015260006060840152602435608084015260243560a084015260443560c084015260643560e0840152611d4c61010084015261012083015260a4356101408301524261016083015260c4356101808301528260005260046020526040600020938251855560018060a01b0390511660018501549060408401516002811015610304576001600160a81b03199092161760a09190911b60ff60a01b1617600185015560608201519060058210156103045784600a6101808695611439610e4b96600160209b01611b32565b6080810151600285015560a0810151600385015560c0810151600485015560e0810151600585015561010081015160068501556007840160018060a01b03610120830151166001600160601b0360a01b82541617905561014081015160088501556101608101516009850155015191015533600052600685526114c0836040600020611b56565b6001600160a01b0381166000818152600b875260408082206044358352885290206114ec908590611b56565b80600052600d865261150e6103fe610dc6604060002060405192838092611ce0565b1561157e575b60405190600082527f1fc93ea60d20e9be63a8382c6d894370d08d96cca1b8b6945ddadae61fb0706a8760443593a36040516001815260243586820152837f2889ad19f411ddebebecb8b577f9b378f8136f7068eb59b277edd8fe158172c860403393a382611f22565b80600052600d86526115966044356040600020611b56565b611514565b346101c65760403660031901126101c6576115b46119ea565b6001600160a01b03166000908152600c60205260409020805460243591908210156101c65760209161036491611a74565b346101c65760403660031901126101c6576115fe6119ea565b6001600160a01b03166000908152600d60205260409020805460243591908210156101c65760209161036491611a74565b346101c65760003660031901126101c6576020604051670de0b6b3a76400008152f35b346101c65760403660031901126101c65761166b6119ea565b6024351515602435036101c657602435156118705760018060a01b038116600052600c6020526103fe6116a960406000205b60405192838092611ce0565b6116b38151611ebd565b916116be8251611ebd565b916000905b80518210156118465761172a946116da8383611d1d565b516116e58483611d1d565b52602435156118125760018060a01b0384166000526020600a81526040600020906117108585611d1d565b516000525261173160406000205b60405197888092611ce0565b0387611b10565b60009360005b87518110156117f25761174a8189611d1d565b516000526004602052600160406000200154600560ff8260a81c1610156103045760a81c60ff161580156117be575b61178c575b61178790611ace565b611737565b946117b66117879161179e888b611d1d565b51600052600460205260036040600020015490611c76565b95905061177e565b506117c98189611d1d565b51600052600460205260ff60016040600020015460a81c16600581101561030457600114611779565b509361180c92939196506118068287611d1d565b52611ace565b906116c3565b60018060a01b0384166000526020600b81526040600020906118348585611d1d565b5160005252611731604060002061171e565b6118628561113b86604051938493604085526040850190611a16565b908382036020850152611a16565b60018060a01b038116600052600d6020526103fe6116a9604060002061169d565b346101c65760003660031901126101c65760206040516127108152f35b346101c65760403660031901126101c6576118c76119ea565b6001600160a01b0360243581811692908390036101c6571660005260086020526040600020906000526020526020604060002054604051908152f35b346101c65761191136611a4a565b9160018060a01b0316600052600a602052604060002090600052602052604060002080548210156101c65760209161036491611a74565b346101c65761195636611a4a565b9160018060a01b0316600052600b602052604060002090600052602052604060002080548210156101c65760209161036491611a74565b346101c65760003660031901126101c6576020604051611d4c8152f35b346101c65760203660031901126101c65761113b906001600160a01b036119cf6119ea565b166000526007602052611127816103fe816040600020611ce0565b600435906001600160a01b03821682036101c657565b608435906001600160a01b03821682036101c657565b90815180825260208080930193019160005b828110611a36575050505090565b835185529381019392810192600101611a28565b60609060031901126101c6576004356001600160a01b03811681036101c657906024359060443590565b8054821015611a8c5760005260206000200190600090565b634e487b7160e01b600052603260045260246000fd5b6000546001600160a01b03163303611ab657565b60405163118cdaa760e01b8152336004820152602490fd5b60001981146106bd5760010190565b6101a0810190811067ffffffffffffffff821117611afa57604052565b634e487b7160e01b600052604160045260246000fd5b90601f8019910116810190811067ffffffffffffffff821117611afa57604052565b90600581101561030457815460ff60a81b191660a89190911b60ff60a81b16179055565b805468010000000000000000811015611afa57611b7891600182018155611a74565b819291549060031b91821b91600019901b1916179055565b6040516323b872dd60e01b60208201526001600160a01b03928316602482015292909116604483015260648083019390935291815260a081019181831067ffffffffffffffff841117611afa57611be992604052611beb565b565b906000602091828151910182855af115611c47576000513d611c3e57506001600160a01b0381163b155b611c1c5750565b604051635274afe760e01b81526001600160a01b039091166004820152602490fd5b60011415611c15565b6040513d6000823e3d90fd5b600260015414611c64576002600155565b604051633ee5aeb560e01b8152600490fd5b919082018092116106bd57565b919082039182116106bd57565b60405163a9059cbb60e01b60208201526001600160a01b039092166024830152604480830193909352918152608081019167ffffffffffffffff831182841017611afa57611be992604052611beb565b90815480825260208092019260005281600020916000905b828210611d06575050505090565b835485529384019360019384019390910190611cf8565b8051821015611a8c5760209160051b010190565b9061172a9160018060a01b03166000818152602090600c8252604091611d5e838320845197888092611ce0565b855115611df35760001993825b8751811015611dd757818452600a8352848420611d88828a611d1d565b518552835284842054151580611dc4575b611dac575b611da790611ace565b611d6b565b9450611da7611dbb8689611d1d565b51959050611d9e565b5085611dd0828a611d1d565b5110611d99565b505050929350506000198114600014611dee575090565b905090565b5093505050565b60018060a01b03169061046f6000838152602090600d8252604091611e26838320845195868092611ce0565b835115611df3578195825b8551811015611e9d57818452600b8352848420611e4e8288611d1d565b518552835284842054151580611e8a575b611e72575b611e6d90611ace565b611e31565b9650611e6d611e818887611d1d565b51979050611e64565b5087611e968288611d1d565b5111611e5f565b505050505050565b67ffffffffffffffff8111611afa5760051b60200190565b90611ec782611ea5565b611ed46040519182611b10565b8281528092611ee5601f1991611ea5565b0190602036910137565b818102929181159184041417156106bd57565b8115611f0c570490565b634e487b7160e01b600052601260045260246000fd5b909181600052600460205260406000209160038301549160ff600185015460a01c166002811015610304576123335761088e9082600052600460205260406000209360018060a01b038716600052600d602052611f89604060002060405194858092611ce0565b611f9283612999565b60005b8351811080612326575b156120a457611fae8185611d1d565b5160048701541115611fc9575b611fc490611ace565b611f95565b9261172a949596919260018060a01b038916600052600b6020526040600020611ff28684611d1d565b5160005260205261200d604060002060405197888092611ce0565b60005b8651811080612097575b1561208a576120298188611d1d565b519081600052600460205260ff60016040600020015460a81c16916005831015610304578b83612069941590811561207f575b5061206e575b5050611ace565b612010565b612078918b6124ac565b388b612062565b60019150143861205c565b5092919695945092611fbb565b506003890154151561201a565b509095946120bd9450909250600391505b015490611c83565b9060009160009360018060a01b038316600052600c6020526103fe6120ec604060002060405192838092611ce0565b6000935b81518510156121d25761172a94959660018060a01b038216600052600a602052604060002061211f8885611d1d565b5160005260205261213a604060002060405197888092611ce0565b60005b86518110156121b6576121508188611d1d565b516000526004602052604060002060ff600182015460a81c1660058110156103045780159081156121ab575b50612191575b5061218c90611ace565b61213d565b61218c919960036121a492015490611c76565b9890612182565b60019150143861217c565b5092956121c69194929550611ace565b939092959491956120f0565b93505090939260018060a01b038316600052600d6020526103fe612200604060002060405192838092611ce0565b6000935b81518510156122e65761172a94959660018060a01b038216600052600b60205260406000206122338885611d1d565b5160005260205261224e604060002060405197888092611ce0565b60005b86518110156122ca576122648188611d1d565b516000526004602052604060002060ff600182015460a81c1660058110156103045780159081156122bf575b506122a5575b506122a090611ace565b612251565b6122a0919960036122b892015490611c76565b9890612296565b600191501438612290565b5092956122da9194929550611ace565b93909295949195612204565b905060409193507f062854443ee7e14a9ed38600282f4c87418c7312a70a54d00d94c3954604c13392948251948552602085015260018060a01b031692a2565b5060038601541515611f9f565b61088e9082600096939652600460205260406000209360018060a01b038416600052600c60205261236e604060002060405194858092611ce0565b612377836128eb565b60005b835181108061249f575b1561248b576123938185611d1d565b51600487015410156123ae575b6123a990611ace565b61237a565b9261172a949596919260018060a01b038716600052600a60205260406000206123d78684611d1d565b516000526020526123f2604060002060405197888092611ce0565b60005b865181108061247e575b156124715761240e8188611d1d565b519081600052600460205260ff60016040600020015460a81c1691600583101561030457898c846124509515908115612466575b50612455575b505050611ace565b6123f5565b61245e926124ac565b38898c612448565b600191501438612442565b50929196959450926123a0565b50600389015415156123ff565b5090955091936120bd9350600391506120b5565b5060038601541515612384565b9091816000526004602052604060002090836000526040600020600383015460038201548082106000146128a75750905b600354936124ea85611ace565b6003556125096124fe846008850154611eef565b600284015490611f02565b600183810154908301546004840154600580870154908601546001600160a01b039485169a9594909316928082101561289f5750905b60018060a01b03600788015416926040519a61255a8c611add565b868c5260208c015260408b01528760608b01528760808b015260a08a01524260c08a015260e0890152426101008901526101208801528061014088015260006101608801526000610180880152816000526005602052610180604060002097805189556001890160018060a01b03602083015116906001600160601b0360a01b918282541617905560028a0160018060a01b0360408401511682825416179055606082015160038b0155608082015160048b015560a082015160058b015560c082015160068b015560e082015160078b015561010082015160088b015560098a019060018060a01b036101208401511690825416179055610140810151600a8a0155610160810151600b8a015501516004811015610304578560209761270792600c7f153b48ba698524f3ca3fca489cf36f46233829cb766e9de774b55345a8e832bd9b019060ff8019835416911617905560018060a01b03600188015416600052600789526126ce856040600020611b56565b60018060a01b03600187015416600052600789526126f0856040600020611b56565b60018701546001600160a01b039081169116611c90565b60018401546001600160a01b03908116600090815260088852604080822060078801549093168252918852208054909161274091611c83565b905560018060a01b0360018401541660018060a01b03600184015416917f74b3e97b2a36ecfc8a1c59a0f98862174d98f86769a3420cf68024a054f87b6d87604051888152a4612794836003830154611c83565b60038201556127a7836003840154611c83565b60038301558560038201548015600014612850575050600101805460ff60a81b1916600160a91b1790555b8560038201548015600014612801575050600101805460ff60a81b1916600160a91b1790555b604051908152a3565b6001909201805460ff60a81b1916600160a81b179055604080518481528581019390935290917fff5d5b1b81d52f6ee4735ef3e855e92d966085830dc91daad5efcff6defc55319190a26127f8565b6001909201805460ff60a81b1916600160a81b179055604080518581528681019390935290917fff5d5b1b81d52f6ee4735ef3e855e92d966085830dc91daad5efcff6defc55319190a26127d2565b90509061253f565b9050906124dd565b9060005b82518110156128e357816128c78285611d1d565b51146128db576128d690611ace565b6128b3565b505050600190565b505050600090565b600090815b815181101561299457600180820180831161298057815b61291c575b505061291790611ace565b6128f0565b835181101561297b5761294a82916129348587611d1d565b5161293f8288611d1d565b511061295057611ace565b90612907565b61295a8187611d1d565b516129658688611d1d565b516129708389611d1d565b526118068688611d1d565b61290c565b634e487b7160e01b85526011600452602485fd5b505050565b600090815b815181101561299457600180820180831161298057815b6129ca575b50506129c590611ace565b61299e565b83518110156129fe576129f882916129e28587611d1d565b516129ed8288611d1d565b511161295057611ace565b906129b5565b6129ba56fea26469706673582212206c469722f704fb4ad1333f06d3c6ee0b9c1169c7c297c5e6a8974eb9e3379d2764736f6c63430008140033",
  "linkReferences": {},
  "deployedLinkReferences": {}
}