{
  "_format": "hh-sol-artifact-1",
  "contractName": "LegosCLOB",
  "sourceName": "contracts/core/LegosCLOB.sol",
  "abi": [
    {
      "inputs": [
        {
          "internalType": "address",
          "name": "initialOwner",
          "type": "address"
        }
      ],
      "stateMutability": "nonpayable",
      "type": "constructor"
    },
    {
      "inputs": [],
      "name": "InsufficientCollateral",
      "type": "error"
    },
    {
      "inputs": [],
      "name": "InvalidAmount",
      "type": "error"
    },
    {
      "inputs": [],
      "name": "InvalidAsset",
      "type": "error"
    },
    {
      "inputs": [],
      "name": "InvalidInterestRate",
      "type": "error"
    },
    {
      "inputs": [],
      "name": "InvalidLTV",
      "type": "error"
    },
    {
      "inputs": [],
      "name": "OrderExpired",
      "type": "error"
    },
    {
      "inputs": [],
      "name": "OrderNotActive",
      "type": "error"
    },
    {
      "inputs": [],
      "name": "OrderNotFound",
      "type": "error"
    },
    {
      "inputs": [
        {
          "internalType": "address",
          "name": "owner",
          "type": "address"
        }
      ],
      "name": "OwnableInvalidOwner",
      "type": "error"
    },
    {
      "inputs": [
        {
          "internalType": "address",
          "name": "account",
          "type": "address"
        }
      ],
      "name": "OwnableUnauthorizedAccount",
      "type": "error"
    },
    {
      "inputs": [],
      "name": "ReentrancyGuardReentrantCall",
      "type": "error"
    },
    {
      "inputs": [
        {
          "internalType": "address",
          "name": "token",
          "type": "address"
        }
      ],
      "name": "SafeERC20FailedOperation",
      "type": "error"
    },
    {
      "inputs": [],
      "name": "UnauthorizedAccess",
      "type": "error"
    },
    {
      "anonymous": false,
      "inputs": [
        {
          "indexed": true,
          "internalType": "address",
          "name": "asset",
          "type": "address"
        },
        {
          "indexed": false,
          "internalType": "uint256",
          "name": "newRate",
          "type": "uint256"
        }
      ],
      "name": "BorrowingRateUpdated",
      "type": "event"
    },
    {
      "anonymous": false,
      "inputs": [
        {
          "indexed": true,
          "internalType": "address",
          "name": "user",
          "type": "address"
        },
        {
          "indexed": true,
          "internalType": "address",
          "name": "token",
          "type": "address"
        },
        {
          "indexed": false,
          "internalType": "uint256",
          "name": "amount",
          "type": "uint256"
        }
      ],
      "name": "CollateralDeposited",
      "type": "event"
    },
    {
      "anonymous": false,
      "inputs": [
        {
          "indexed": true,
          "internalType": "address",
          "name": "user",
          "type": "address"
        },
        {
          "indexed": true,
          "internalType": "address",
          "name": "token",
          "type": "address"
        },
        {
          "indexed": false,
          "internalType": "uint256",
          "name": "amount",
          "type": "uint256"
        }
      ],
      "name": "CollateralWithdrawn",
      "type": "event"
    },
    {
      "anonymous": false,
      "inputs": [
        {
          "indexed": true,
          "internalType": "uint256",
          "name": "loanId",
          "type": "uint256"
        },
        {
          "indexed": false,
          "internalType": "uint256",
          "name": "interest",
          "type": "uint256"
        }
      ],
      "name": "InterestAccrued",
      "type": "event"
    },
    {
      "anonymous": false,
      "inputs": [
        {
          "indexed": true,
          "internalType": "address",
          "name": "asset",
          "type": "address"
        },
        {
          "indexed": false,
          "internalType": "uint256",
          "name": "newRate",
          "type": "uint256"
        }
      ],
      "name": "LendingRateUpdated",
      "type": "event"
    },
    {
      "anonymous": false,
      "inputs": [
        {
          "indexed": true,
          "internalType": "uint256",
          "name": "loanId",
          "type": "uint256"
        },
        {
          "indexed": true,
          "internalType": "address",
          "name": "liquidator",
          "type": "address"
        },
        {
          "indexed": false,
          "internalType": "uint256",
          "name": "collateralSeized",
          "type": "uint256"
        }
      ],
      "name": "LiquidationExecuted",
      "type": "event"
    },
    {
      "anonymous": false,
      "inputs": [
        {
          "indexed": true,
          "internalType": "uint256",
          "name": "loanId",
          "type": "uint256"
        },
        {
          "indexed": true,
          "internalType": "address",
          "name": "borrower",
          "type": "address"
        },
        {
          "indexed": true,
          "internalType": "address",
          "name": "lender",
          "type": "address"
        },
        {
          "indexed": false,
          "internalType": "uint256",
          "name": "amount",
          "type": "uint256"
        }
      ],
      "name": "LoanCreated",
      "type": "event"
    },
    {
      "anonymous": false,
      "inputs": [
        {
          "indexed": true,
          "internalType": "uint256",
          "name": "loanId",
          "type": "uint256"
        },
        {
          "indexed": false,
          "internalType": "uint256",
          "name": "amount",
          "type": "uint256"
        }
      ],
      "name": "LoanRepaid",
      "type": "event"
    },
    {
      "anonymous": false,
      "inputs": [
        {
          "indexed": true,
          "internalType": "address",
          "name": "asset",
          "type": "address"
        },
        {
          "indexed": true,
          "internalType": "uint256",
          "name": "rate",
          "type": "uint256"
        },
        {
          "indexed": false,
          "internalType": "bool",
          "name": "isLend",
          "type": "bool"
        }
      ],
      "name": "OrderBookUpdated",
      "type": "event"
    },
    {
      "anonymous": false,
      "inputs": [
        {
          "indexed": true,
          "internalType": "uint256",
          "name": "lendOrderId",
          "type": "uint256"
        },
        {
          "indexed": true,
          "internalType": "uint256",
          "name": "borrowOrderId",
          "type": "uint256"
        },
        {
          "indexed": false,
          "internalType": "uint256",
          "name": "amount",
          "type": "uint256"
        }
      ],
      "name": "OrderMatched",
      "type": "event"
    },
    {
      "anonymous": false,
      "inputs": [
        {
          "indexed": true,
          "internalType": "uint256",
          "name": "orderId",
          "type": "uint256"
        },
        {
          "indexed": false,
          "internalType": "uint256",
          "name": "amountFilled",
          "type": "uint256"
        },
        {
          "indexed": false,
          "internalType": "uint256",
          "name": "remaining",
          "type": "uint256"
        }
      ],
      "name": "OrderPartiallyFilled",
      "type": "event"
    },
    {
      "anonymous": false,
      "inputs": [
        {
          "indexed": true,
          "internalType": "uint256",
          "name": "orderId",
          "type": "uint256"
        },
        {
          "indexed": true,
          "internalType": "address",
          "name": "user",
          "type": "address"
        },
        {
          "indexed": false,
          "internalType": "enum ILegosCore.OrderType",
          "name": "orderType",
          "type": "uint8"
        },
        {
          "indexed": false,
          "internalType": "uint256",
          "name": "amount",
          "type": "uint256"
        }
      ],
      "name": "OrderPlaced",
      "type": "event"
    },
    {
      "anonymous": false,
      "inputs": [
        {
          "indexed": true,
          "internalType": "address",
          "name": "previousOwner",
          "type": "address"
        },
        {
          "indexed": true,
          "internalType": "address",
          "name": "newOwner",
          "type": "address"
        }
      ],
      "name": "OwnershipTransferred",
      "type": "event"
    },
    {
      "inputs": [],
      "name": "DEFAULT_LTV",
      "outputs": [
        {
          "internalType": "uint256",
          "name": "",
          "type": "uint256"
        }
      ],
      "stateMutability": "view",
      "type": "function"
    },
    {
      "inputs": [],
      "name": "MAX_INTEREST_RATE",
      "outputs": [
        {
          "internalType": "uint256",
          "name": "",
          "type": "uint256"
        }
      ],
      "stateMutability": "view",
      "type": "function"
    },
    {
      "inputs": [],
      "name": "MIN_ORDER_AMOUNT",
      "outputs": [
        {
          "internalType": "uint256",
          "name": "",
          "type": "uint256"
        }
      ],
      "stateMutability": "view",
      "type": "function"
    },
    {
      "inputs": [
        {
          "internalType": "address",
          "name": "",
          "type": "address"
        },
        {
          "internalType": "uint256",
          "name": "",
          "type": "uint256"
        }
      ],
      "name": "activeBorrowRates",
      "outputs": [
        {
          "internalType": "uint256",
          "name": "",
          "type": "uint256"
        }
      ],
      "stateMutability": "view",
      "type": "function"
    },
    {
      "inputs": [
        {
          "internalType": "address",
          "name": "",
          "type": "address"
        },
        {
          "internalType": "uint256",
          "name": "",
          "type": "uint256"
        }
      ],
      "name": "activeLendRates",
      "outputs": [
        {
          "internalType": "uint256",
          "name": "",
          "type": "uint256"
        }
      ],
      "stateMutability": "view",
      "type": "function"
    },
    {
      "inputs": [
        {
          "internalType": "address",
          "name": "",
          "type": "address"
        }
      ],
      "name": "assetRiskParams",
      "outputs": [
        {
          "internalType": "uint256",
          "name": "maxLTV",
          "type": "uint256"
        },
        {
          "internalType": "uint256",
          "name": "liquidationThreshold",
          "type": "uint256"
        },
        {
          "internalType": "uint256",
          "name": "liquidationPenalty",
          "type": "uint256"
        },
        {
          "internalType": "uint256",
          "name": "minCollateralRatio",
          "type": "uint256"
        },
        {
          "internalType": "bool",
          "name": "isEnabled",
          "type": "bool"
        }
      ],
      "stateMutability": "view",
      "type": "function"
    },
    {
      "inputs": [
        {
          "internalType": "address",
          "name": "",
          "type": "address"
        },
        {
          "internalType": "uint256",
          "name": "",
          "type": "uint256"
        },
        {
          "internalType": "uint256",
          "name": "",
          "type": "uint256"
        }
      ],
      "name": "borrowOrdersByRate",
      "outputs": [
        {
          "internalType": "uint256",
          "name": "",
          "type": "uint256"
        }
      ],
      "stateMutability": "view",
      "type": "function"
    },
    {
      "inputs": [
        {
          "internalType": "uint256",
          "name": "orderId",
          "type": "uint256"
        }
      ],
      "name": "cancelOrder",
      "outputs": [],
      "stateMutability": "nonpayable",
      "type": "function"
    },
    {
      "inputs": [
        {
          "internalType": "address",
          "name": "asset",
          "type": "address"
        }
      ],
      "name": "getBestBorrowingRate",
      "outputs": [
        {
          "internalType": "uint256",
          "name": "",
          "type": "uint256"
        }
      ],
      "stateMutability": "view",
      "type": "function"
    },
    {
      "inputs": [
        {
          "internalType": "address",
          "name": "asset",
          "type": "address"
        }
      ],
      "name": "getBestLendingRate",
      "outputs": [
        {
          "internalType": "uint256",
          "name": "",
          "type": "uint256"
        }
      ],
      "stateMutability": "view",
      "type": "function"
    },
    {
      "inputs": [
        {
          "internalType": "address",
          "name": "asset",
          "type": "address"
        },
        {
          "internalType": "bool",
          "name": "isLend",
          "type": "bool"
        }
      ],
      "name": "getOrderBookDepth",
      "outputs": [
        {
          "internalType": "uint256[]",
          "name": "rates",
          "type": "uint256[]"
        },
        {
          "internalType": "uint256[]",
          "name": "amounts",
          "type": "uint256[]"
        }
      ],
      "stateMutability": "view",
      "type": "function"
    },
    {
      "inputs": [
        {
          "internalType": "address",
          "name": "user",
          "type": "address"
        }
      ],
      "name": "getUserLoans",
      "outputs": [
        {
          "internalType": "uint256[]",
          "name": "",
          "type": "uint256[]"
        }
      ],
      "stateMutability": "view",
      "type": "function"
    },
    {
      "inputs": [
        {
          "internalType": "address",
          "name": "user",
          "type": "address"
        }
      ],
      "name": "getUserOrders",
      "outputs": [
        {
          "internalType": "uint256[]",
          "name": "",
          "type": "uint256[]"
        }
      ],
      "stateMutability": "view",
      "type": "function"
    },
    {
      "inputs": [
        {
          "internalType": "address",
          "name": "",
          "type": "address"
        },
        {
          "internalType": "uint256",
          "name": "",
          "type": "uint256"
        },
        {
          "internalType": "uint256",
          "name": "",
          "type": "uint256"
        }
      ],
      "name": "lendOrdersByRate",
      "outputs": [
        {
          "internalType": "uint256",
          "name": "",
          "type": "uint256"
        }
      ],
      "stateMutability": "view",
      "type": "function"
    },
    {
      "inputs": [
        {
          "internalType": "uint256",
          "name": "",
          "type": "uint256"
        }
      ],
      "name": "loans",
      "outputs": [
        {
          "internalType": "uint256",
          "name": "loanId",
          "type": "uint256"
        },
        {
          "internalType": "address",
          "name": "borrower",
          "type": "address"
        },
        {
          "internalType": "address",
          "name": "lender",
          "type": "address"
        },
        {
          "internalType": "uint256",
          "name": "principalAmount",
          "type": "uint256"
        },
        {
          "internalType": "uint256",
          "name": "remainingPrincipal",
          "type": "uint256"
        },
        {
          "internalType": "uint256",
          "name": "interestRate",
          "type": "uint256"
        },
        {
          "internalType": "uint256",
          "name": "startTime",
          "type": "uint256"
        },
        {
          "internalType": "uint256",
          "name": "duration",
          "type": "uint256"
        },
        {
          "internalType": "uint256",
          "name": "lastUpdateTime",
          "type": "uint256"
        },
        {
          "internalType": "address",
          "name": "collateralToken",
          "type": "address"
        },
        {
          "internalType": "uint256",
          "name": "collateralAmount",
          "type": "uint256"
        },
        {
          "internalType": "uint256",
          "name": "accruedInterest",
          "type": "uint256"
        },
        {
          "internalType": "enum ILegosCore.LoanStatus",
          "name": "status",
          "type": "uint8"
        }
      ],
      "stateMutability": "view",
      "type": "function"
    },
    {
      "inputs": [
        {
          "internalType": "uint256",
          "name": "",
          "type": "uint256"
        }
      ],
      "name": "orders",
      "outputs": [
        {
          "internalType": "uint256",
          "name": "orderId",
          "type": "uint256"
        },
        {
          "internalType": "address",
          "name": "user",
          "type": "address"
        },
        {
          "internalType": "enum ILegosCore.OrderType",
          "name": "orderType",
          "type": "uint8"
        },
        {
          "internalType": "enum ILegosCore.OrderStatus",
          "name": "status",
          "type": "uint8"
        },
        {
          "internalType": "uint256",
          "name": "principalAmount",
          "type": "uint256"
        },
        {
          "internalType": "uint256",
          "name": "remainingAmount",
          "type": "uint256"
        },
        {
          "internalType": "uint256",
          "name": "interestRate",
          "type": "uint256"
        },
        {
          "internalType": "uint256",
          "name": "duration",
          "type": "uint256"
        },
        {
          "internalType": "uint256",
          "name": "maxLTV",
          "type": "uint256"
        },
        {
          "internalType": "address",
          "name": "collateralToken",
          "type": "address"
        },
        {
          "internalType": "uint256",
          "name": "collateralAmount",
          "type": "uint256"
        },
        {
          "internalType": "uint256",
          "name": "timestamp",
          "type": "uint256"
        },
        {
          "internalType": "uint256",
          "name": "expiry",
          "type": "uint256"
        }
      ],
      "stateMutability": "view",
      "type": "function"
    },
    {
      "inputs": [],
      "name": "owner",
      "outputs": [
        {
          "internalType": "address",
          "name": "",
          "type": "address"
        }
      ],
      "stateMutability": "view",
      "type": "function"
    },
    {
      "inputs": [
        {
          "internalType": "address",
          "name": "asset",
          "type": "address"
        },
        {
          "internalType": "uint256",
          "name": "amount",
          "type": "uint256"
        },
        {
          "internalType": "uint256",
          "name": "interestRate",
          "type": "uint256"
        },
        {
          "internalType": "uint256",
          "name": "duration",
          "type": "uint256"
        },
        {
          "internalType": "address",
          "name": "collateralToken",
          "type": "address"
        },
        {
          "internalType": "uint256",
          "name": "collateralAmount",
          "type": "uint256"
        },
        {
          "internalType": "uint256",
          "name": "expiry",
          "type": "uint256"
        }
      ],
      "name": "placeBorrowOrder",
      "outputs": [
        {
          "internalType": "uint256",
          "name": "orderId",
          "type": "uint256"
        }
      ],
      "stateMutability": "nonpayable",
      "type": "function"
    },
    {
      "inputs": [
        {
          "internalType": "address",
          "name": "asset",
          "type": "address"
        },
        {
          "internalType": "uint256",
          "name": "amount",
          "type": "uint256"
        },
        {
          "internalType": "uint256",
          "name": "interestRate",
          "type": "uint256"
        },
        {
          "internalType": "uint256",
          "name": "duration",
          "type": "uint256"
        },
        {
          "internalType": "uint256",
          "name": "maxLTV",
          "type": "uint256"
        },
        {
          "internalType": "address",
          "name": "collateralToken",
          "type": "address"
        },
        {
          "internalType": "uint256",
          "name": "expiry",
          "type": "uint256"
        }
      ],
      "name": "placeLendOrder",
      "outputs": [
        {
          "internalType": "uint256",
          "name": "orderId",
          "type": "uint256"
        }
      ],
      "stateMutability": "nonpayable",
      "type": "function"
    },
    {
      "inputs": [],
      "name": "protocolFee",
      "outputs": [
        {
          "internalType": "uint256",
          "name": "",
          "type": "uint256"
        }
      ],
      "stateMutability": "view",
      "type": "function"
    },
    {
      "inputs": [],
      "name": "renounceOwnership",
      "outputs": [],
      "stateMutability": "nonpayable",
      "type": "function"
    },
    {
      "inputs": [
        {
          "internalType": "address",
          "name": "newOwner",
          "type": "address"
        }
      ],
      "name": "transferOwnership",
      "outputs": [],
      "stateMutability": "nonpayable",
      "type": "function"
    },
    {
      "inputs": [
        {
          "internalType": "address",
          "name": "",
          "type": "address"
        },
        {
          "internalType": "address",
          "name": "",
          "type": "address"
        }
      ],
      "name": "userCollateral",
      "outputs": [
        {
          "internalType": "uint256",
          "name": "",
          "type": "uint256"
        }
      ],
      "stateMutability": "view",
      "type": "function"
    },
    {
      "inputs": [
        {
          "internalType": "address",
          "name": "",
          "type": "address"
        },
        {
          "internalType": "uint256",
          "name": "",
          "type": "uint256"
        }
      ],
      "name": "userLoans",
      "outputs": [
        {
          "internalType": "uint256",
          "name": "",
          "type": "uint256"
        }
      ],
      "stateMutability": "view",
      "type": "function"
    },
    {
      "inputs": [
        {
          "internalType": "address",
          "name": "",
          "type": "address"
        },
        {
          "internalType": "uint256",
          "name": "",
          "type": "uint256"
        }
      ],
      "name": "userOrders",
      "outputs": [
        {
          "internalType": "uint256",
          "name": "",
          "type": "uint256"
        }
      ],
      "stateMutability": "view",
      "type": "function"
    }
  ],
  "bytecode": "0x6080346100ce57601f6120e338819003918201601f19168301916001600160401b038311848410176100d3578084926020946040528339810103126100ce57516001600160a01b0390818116908190036100ce5780156100b557600080546001600160a01b03198116831782556040519316907f8be0079c531659141344cd1fd0a4f28419497f9722a3daafe3b4186f6b6457e09080a360018055600160025560016003556064600e55611ff990816100ea8239f35b604051631e4fbdf760e01b815260006004820152602490fd5b600080fd5b634e487b7160e01b600052604160045260246000fdfe608080604052600436101561001357600080fd5b60003560e01c90816302bf321f146111bf575080631b930720146111a25780631befb29d1461115d578063294caeb3146111185780632b92a07d146110c357806334855d14146110a65780633df1071b14610e6757806340bf2aa414610e44578063479ee32f14610dfa57806347bde10814610db05780634e5ee37914610a7b578063514fcac71461092b57806363c69f08146108cf5780636b95018e146108ac578063715018a6146108535780637cb6c59a14610828578063856652e9146107de5780638da5cb5b146107b5578063a85c38ef146106de578063abc4b82f14610385578063b0e21e8a14610367578063d8bad5bd1461030f578063e1ec3c681461022b578063eb717d4e146101c05763f2fde38b1461013257600080fd5b346101bb5760203660031901126101bb5761014b6111ff565b6101536112a1565b6001600160a01b039081169081156101a257600054826001600160601b0360a01b821617600055167f8be0079c531659141344cd1fd0a4f28419497f9722a3daafe3b4186f6b6457e0600080a3005b604051631e4fbdf760e01b815260006004820152602490fd5b600080fd5b346101bb5760203660031901126101bb576001600160a01b036101e16111ff565b16600052600960205260a06040600020805490600181015490600281015460ff60046003840154930154169260405194855260208501526040840152606083015215156080820152f35b346101bb5760203660031901126101bb5760043560005260056020526040600020805460018060a01b0391826001820154169280600283015416906003830154906004840154600585015460068601549060078701549260088801549460098901541695600a8901549760ff600c600b8c01549b0154169b6040519b8c5260208c015260408b015260608a0152608089015260a088015260c087015260e086015261010085015261012084015261014083015261016082015260048210156102f9576101a091610180820152f35b634e487b7160e01b600052602160045260246000fd5b346101bb5760403660031901126101bb576103286111ff565b6001600160a01b03166000908152600760205260409020805460243591908210156101bb5760209161035991611273565b90546040519160031b1c8152f35b346101bb5760003660031901126101bb576020600e54604051908152f35b346101bb5760e03660031901126101bb5761039e6111ff565b60a435906001600160a01b03821682036101bb576103ba611452565b670de0b6b3a7640000602435106106cc5761271080604435116106ba57608435116106a8574260c43511156106965761040060243530336001600160a01b03851661138f565b6002549061040d826112cd565b6002556040519261041d846112dc565b8284523360208501526000604085015260006060850152602435608085015260243560a085015260443560c085015260643560e085015260843561010085015260018060a01b031661012084015260006101408401524261016084015260c4356101808401528160005260046020526040600020908351825560018060a01b03602085015116600183015490604086015160028110156102f9576001600160a81b03199092161760a09190911b60ff60a01b1617600183015560608401519160058310156102f957600a6101806020966104fd6106659660018601611331565b6080810151600285015560a0810151600385015560c0810151600485015560e0810151600585015561010081015160068501556007840160018060a01b03610120830151166001600160601b0360a01b8254161790556101408101516008850155610160810151600985015501519101553360005260068452610584836040600020611355565b60018060a01b038116600052600a8452604060002060443560005284526105af836040600020611355565b60018060a01b038116600052600c84526105e96105d96105e06040600020604051928380926114df565b038261130f565b60443590611f87565b15610671575b60405160018152604435906001600160a01b038316907f1fc93ea60d20e9be63a8382c6d894370d08d96cca1b8b6945ddadae61fb0706a908790a36040516000815260243585820152837f2889ad19f411ddebebecb8b577f9b378f8136f7068eb59b277edd8fe158172c860403393a3826116f5565b60018055604051908152f35b60018060a01b038116600052600c84526106916044356040600020611355565b6105ef565b6040516362b439dd60e11b8152600490fd5b604051632f2a24a960e11b8152600490fd5b60405163b770249b60e01b8152600490fd5b60405163162908e360e11b8152600490fd5b346101bb5760203660031901126101bb576004356000526004602052604060002080546001820154600283015492600381015491600482015492600583015460068401549060018060a01b03958660078701541693600887015495600a6009890154980154986040519a8b52811660208b015260ff8160a01c169060028210156102f95760ff9160408c015260a81c169960058b10156102f9576101a09a60608b015260808a015260a089015260c088015260e0870152610100860152610120850152610140840152610160830152610180820152f35b346101bb5760003660031901126101bb576000546040516001600160a01b039091168152602090f35b346101bb5760403660031901126101bb576107f76111ff565b6001600160a01b03166000908152600660205260409020805460243591908210156101bb5760209161035991611273565b346101bb5760203660031901126101bb57602061084b6108466111ff565b611530565b604051908152f35b346101bb5760003660031901126101bb5761086c6112a1565b600080546001600160a01b0319811682556001600160a01b03167f8be0079c531659141344cd1fd0a4f28419497f9722a3daafe3b4186f6b6457e08280a3005b346101bb5760203660031901126101bb57602061084b6108ca6111ff565b6115f9565b346101bb5760203660031901126101bb576001600160a01b036108f06111ff565b1660005260066020526109276105d96109136040600020604051928380926114df565b604051918291602083526020830190611215565b0390f35b346101bb5760203660031901126101bb57610944611452565b600435600052600460205260406000206001810180549060018060a01b039182811690338203610a695760ff8160a81c1660058110156102f9578015159081610a5d575b50610a4b5760ff60a81b1916600360a81b1780835560a01c60ff1660028110156102f9576109e45750600383015491826109c8575b505050505b60018055005b8060076109db950154169154169061148f565b808080806109bd565b90916008840191825494856109ff575b5050505050506109c2565b610a4095839260005260086020526007604060002092019183835416600052602052610a316040600020918254611482565b9055541692541690549161148f565b8080808080806109f4565b604051631d4ecc5b60e01b8152600490fd5b60019150141586610988565b604051631a27eac360e11b8152600490fd5b346101bb5760e03660031901126101bb57610a946111ff565b6084356001600160a01b038116908190036101bb57610ab1611452565b670de0b6b3a7640000602435106106cc5761271080604435116106ba574260c435111561069657613a98806024350290602435820414602435151715610d9a570460a43510610d8857610b0860a43530338461138f565b3360005260086020526040600020816000526020526040600020610b2f60a4358254611475565b905560025490610b3e826112cd565b60025560405192610b4e846112dc565b82845260208401913383526001604086015260006060860152602435608086015260243560a086015260443560c086015260643560e0860152611d4c61010086015261012085015260a4356101408501524261016085015260c4356101808501528260005260046020526040600020918451835560018060a01b03905116600183015490604086015160028110156102f9576001600160a81b03199092161760a09190911b60ff60a01b1617600183015560608401519160058310156102f957600a610180602096610c266106659660018601611331565b6080810151600285015560a0810151600385015560c0810151600485015560e0810151600585015561010081015160068501556007840160018060a01b03610120830151166001600160601b0360a01b8254161790556101408101516008850155610160810151600985015501519101553360005260068452610cad836040600020611355565b6001600160a01b0381166000818152600b86526040808220604435835287529020610cd9908590611355565b80600052600d8552610cfb6105d96105e06040600020604051928380926114df565b15610d6b575b60405190600082527f1fc93ea60d20e9be63a8382c6d894370d08d96cca1b8b6945ddadae61fb0706a8660443593a36040516001815260243585820152837f2889ad19f411ddebebecb8b577f9b378f8136f7068eb59b277edd8fe158172c860403393a3826116f5565b80600052600d8552610d836044356040600020611355565b610d01565b604051633a23d82560e01b8152600490fd5b634e487b7160e01b600052601160045260246000fd5b346101bb5760403660031901126101bb57610dc96111ff565b6001600160a01b03166000908152600c60205260409020805460243591908210156101bb5760209161035991611273565b346101bb5760403660031901126101bb57610e136111ff565b6001600160a01b03166000908152600d60205260409020805460243591908210156101bb5760209161035991611273565b346101bb5760003660031901126101bb576020604051670de0b6b3a76400008152f35b346101bb5760403660031901126101bb57610e806111ff565b6024351515602435036101bb57602435156110855760018060a01b038116600052600c6020526105d9610ebe60406000205b604051928380926114df565b610ec881516116c3565b91610ed382516116c3565b916000905b805182101561105b57610f3f94610eef838361151c565b51610efa848361151c565b52602435156110275760018060a01b0384166000526020600a8152604060002090610f25858561151c565b5160005252610f4660406000205b604051978880926114df565b038761130f565b60009360005b875181101561100757610f5f818961151c565b516000526004602052600160406000200154600560ff8260a81c1610156102f95760a81c60ff16158015610fd3575b610fa1575b610f9c906112cd565b610f4c565b94610fcb610f9c91610fb3888b61151c565b51600052600460205260036040600020015490611475565b959050610f93565b50610fde818961151c565b51600052600460205260ff60016040600020015460a81c1660058110156102f957600114610f8e565b5093611021929391965061101b828761151c565b526112cd565b90610ed8565b60018060a01b0384166000526020600b8152604060002090611049858561151c565b5160005252610f466040600020610f33565b6110778561092786604051938493604085526040850190611215565b908382036020850152611215565b60018060a01b038116600052600d6020526105d9610ebe6040600020610eb2565b346101bb5760003660031901126101bb5760206040516127108152f35b346101bb5760403660031901126101bb576110dc6111ff565b6001600160a01b0360243581811692908390036101bb571660005260086020526040600020906000526020526020604060002054604051908152f35b346101bb5761112636611249565b9160018060a01b0316600052600a602052604060002090600052602052604060002080548210156101bb5760209161035991611273565b346101bb5761116b36611249565b9160018060a01b0316600052600b602052604060002090600052602052604060002080548210156101bb5760209161035991611273565b346101bb5760003660031901126101bb576020604051611d4c8152f35b346101bb5760203660031901126101bb57610927906001600160a01b036111e46111ff565b166000526007602052610913816105d98160406000206114df565b600435906001600160a01b03821682036101bb57565b90815180825260208080930193019160005b828110611235575050505090565b835185529381019392810192600101611227565b60609060031901126101bb576004356001600160a01b03811681036101bb57906024359060443590565b805482101561128b5760005260206000200190600090565b634e487b7160e01b600052603260045260246000fd5b6000546001600160a01b031633036112b557565b60405163118cdaa760e01b8152336004820152602490fd5b6000198114610d9a5760010190565b6101a0810190811067ffffffffffffffff8211176112f957604052565b634e487b7160e01b600052604160045260246000fd5b90601f8019910116810190811067ffffffffffffffff8211176112f957604052565b9060058110156102f957815460ff60a81b191660a89190911b60ff60a81b16179055565b8054680100000000000000008110156112f95761137791600182018155611273565b819291549060031b91821b91600019901b1916179055565b6040516323b872dd60e01b60208201526001600160a01b03928316602482015292909116604483015260648083019390935291815260a081019181831067ffffffffffffffff8411176112f9576113e8926040526113ea565b565b906000602091828151910182855af115611446576000513d61143d57506001600160a01b0381163b155b61141b5750565b604051635274afe760e01b81526001600160a01b039091166004820152602490fd5b60011415611414565b6040513d6000823e3d90fd5b600260015414611463576002600155565b604051633ee5aeb560e01b8152600490fd5b91908201809211610d9a57565b91908203918211610d9a57565b60405163a9059cbb60e01b60208201526001600160a01b039092166024830152604480830193909352918152608081019167ffffffffffffffff8311828410176112f9576113e8926040526113ea565b90815480825260208092019260005281600020916000905b828210611505575050505090565b8354855293840193600193840193909101906114f7565b805182101561128b5760209160051b010190565b90610f3f9160018060a01b03166000818152602090600c825260409161155d8383208451978880926114df565b8551156115f25760001993825b87518110156115d657818452600a8352848420611587828a61151c565b5185528352848420541515806115c3575b6115ab575b6115a6906112cd565b61156a565b94506115a66115ba868961151c565b5195905061159d565b50856115cf828a61151c565b5110611598565b5050509293505060001981146000146115ed575090565b905090565b5093505050565b60018060a01b0316906116256000838152602090600d825260409161162c8383208451958680926114df565b038561130f565b8351156115f2578195825b85518110156116a357818452600b8352848420611654828861151c565b518552835284842054151580611690575b611678575b611673906112cd565b611637565b9650611673611687888761151c565b5197905061166a565b508761169c828861151c565b5111611665565b505050505050565b67ffffffffffffffff81116112f95760051b60200190565b906116cd826116ab565b6116da604051918261130f565b82815280926116eb601f19916116ab565b0190602036910137565b90600082815260049260209284845260ff936001936040958086888420015460a01c166002811015611b4d576119675785989685839997995286845280832061175860018060a01b038716808652600d875261175f8487208551938480926114df565b038361130f565b859c5b6118b0575b828a019c50999a9899858a5b611788575b5050505050505050505050509050565b82518110806118a3575b1561189e578d6117a2828561151c565b51905411156117c2575b9c6117b98b9c9d9e6112cd565b909d9c9b611773565b818752600b88528487206117d6828561151c565b51885288526105d96117ef8689208751928380926114df565b878c5b6117fe575b50506117ac565b8151811080611891575b1561188c578d888e61181a848661151c565b5192838d528d52898c20015460a81c16600581101561187857918d8f93611857938f9186811591821561186e575b505061185d575b5050506112cd565b906117f2565b61186692611b60565b8d8d3861184f565b1490508638611848565b8f8b6021602492634e487b7160e01b835252fd5b6117f7565b5060038601541515611808565b611778565b5060038401541515611792565b999b819b999b5181101561195c57898101808211611949578a90815b6118e6575b50906118dc906112cd565b9c9a909b99611762565b835181101561194457611913906118fd848661151c565b51611908828761151c565b5111611919576112cd565b816118cc565b611923818661151c565b5161192e858761151c565b51611939838861151c565b5261101b858761151c565b6118d1565b634e487b7160e01b875260118d52602487fd5b508b999a989a611767565b85989685839997999694965286865280832061175860018060a01b038716808652600c895261199d8487208551938480926114df565b859c5b611ad4575b828a019c50999a9899858a5b6119c5575050505050505050505050509050565b8251811080611ac7575b1561189e578d6119df828561151c565b51905410156119ff575b9c6119f68b9c9d9e6112cd565b909d9c9b6119b1565b818752600a8a52848720611a13828561151c565b5188528a526105d9611a2c8689208751928380926114df565b878c5b611a3b575b50506119e9565b8151811080611aba575b15611ab55788888f8f908f611a5a868861151c565b5180955252898c20015460a81c1660058110156118785791611a94918f938d8f91868115918215611aab575b5050611a9a575050506112cd565b90611a2f565b611aa392611b60565b388d8d61184f565b1490508638611a86565b611a34565b5060038601541515611a45565b50600384015415156119cf565b999b819b999b51811015611b4257898101808211611949578a90815b611b0a575b5090611b00906112cd565b9c9a909b996119a0565b8351811015611b3d57611b3790611b21848661151c565b51611b2c828761151c565b5110611919576112cd565b81611af0565b611af5565b508b999a989a6119a5565b634e487b7160e01b835260218952602483fd5b909181600052600460205260406000209083600052604060002060038301546003820154808210600014611f7f5750905b60035493611b9e856112cd565b6003556008820154948584810204841486151715610d9a576002830154958615611f6957600184810154908401546004850154600580880154908701546001600160a01b039485169a949093169280821015611f615750905b60018060a01b03600789015416926040519a611c128c6112dc565b878c5260208c015260408b01528860608b01528860808b015260a08a01524260c08a015260e089015242610100890152610120880152878683020461014088015260006101608801526000610180880152826000526005602052610180604060002097805189556001890160018060a01b03602083015116906001600160601b0360a01b918282541617905560028a0160018060a01b0360408401511682825416179055606082015160038b0155608082015160048b015560a082015160058b015560c082015160068b015560e082015160078b015561010082015160088b015560098a019060018060a01b036101208401511690825416179055610140810151600a8a0155610160810151600b8a015501519760048910156102f957611dc787611e02937f153b48ba698524f3ca3fca489cf36f46233829cb766e9de774b55345a8e832bd9b600c60209c019060ff8019835416911617905560018060a01b0360018a01541660005260078b52611d8e876040600020611355565b60018060a01b0360018901541660005260078b52611db0876040600020611355565b60018901546001600160a01b03908116911661148f565b60018060a01b0360018701541660005260088852604060002060018060a01b0360078801541660005288528660406000209302048254611482565b905560018060a01b0360018401541660018060a01b03600184015416917f74b3e97b2a36ecfc8a1c59a0f98862174d98f86769a3420cf68024a054f87b6d87604051888152a4611e56836003830154611482565b6003820155611e69836003840154611482565b60038301558560038201548015600014611f12575050600101805460ff60a81b1916600160a91b1790555b8560038201548015600014611ec3575050600101805460ff60a81b1916600160a91b1790555b604051908152a3565b6001909201805460ff60a81b1916600160a81b179055604080518481528581019390935290917fff5d5b1b81d52f6ee4735ef3e855e92d966085830dc91daad5efcff6defc55319190a2611eba565b6001909201805460ff60a81b1916600160a81b179055604080518581528681019390935290917fff5d5b1b81d52f6ee4735ef3e855e92d966085830dc91daad5efcff6defc55319190a2611e94565b905090611bf7565b634e487b7160e01b600052601260045260246000fd5b905090611b91565b9060005b8251811015611fbb5781611f9f828561151c565b5114611fb357611fae906112cd565b611f8b565b505050600190565b50505060009056fea26469706673582212209badb58399aad13d274f9df078d8c5dae9fe2e80b85f75db1bc906ab0965c35564736f6c63430008140033",
  "linkReferences": {},
  "deployedLinkReferences": {}
}