{
  "_format": "hh-sol-artifact-1",
  "contractName": "LegosRiskManager",
  "sourceName": "contracts/core/LegosRiskManager.sol",
  "abi": [
    {
      "inputs": [
        {
          "internalType": "address",
          "name": "_clob",
          "type": "address"
        },
        {
          "internalType": "address",
          "name": "_owner",
          "type": "address"
        }
      ],
      "stateMutability": "nonpayable",
      "type": "constructor"
    },
    {
      "inputs": [],
      "name": "HealthyPosition",
      "type": "error"
    },
    {
      "inputs": [],
      "name": "InsufficientCollateral",
      "type": "error"
    },
    {
      "inputs": [],
      "name": "InvalidLiquidationAmount",
      "type": "error"
    },
    {
      "inputs": [],
      "name": "InvalidPrice",
      "type": "error"
    },
    {
      "inputs": [],
      "name": "InvalidRiskParameters",
      "type": "error"
    },
    {
      "inputs": [
        {
          "internalType": "address",
          "name": "owner",
          "type": "address"
        }
      ],
      "name": "OwnableInvalidOwner",
      "type": "error"
    },
    {
      "inputs": [
        {
          "internalType": "address",
          "name": "account",
          "type": "address"
        }
      ],
      "name": "OwnableUnauthorizedAccount",
      "type": "error"
    },
    {
      "inputs": [],
      "name": "PriceStale",
      "type": "error"
    },
    {
      "inputs": [],
      "name": "ReentrancyGuardReentrantCall",
      "type": "error"
    },
    {
      "inputs": [
        {
          "internalType": "address",
          "name": "token",
          "type": "address"
        }
      ],
      "name": "SafeERC20FailedOperation",
      "type": "error"
    },
    {
      "inputs": [],
      "name": "UnauthorizedLiquidator",
      "type": "error"
    },
    {
      "anonymous": false,
      "inputs": [
        {
          "indexed": true,
          "internalType": "address",
          "name": "user",
          "type": "address"
        },
        {
          "indexed": true,
          "internalType": "address",
          "name": "token",
          "type": "address"
        },
        {
          "indexed": false,
          "internalType": "uint256",
          "name": "amount",
          "type": "uint256"
        }
      ],
      "name": "CollateralDeposited",
      "type": "event"
    },
    {
      "anonymous": false,
      "inputs": [
        {
          "indexed": true,
          "internalType": "address",
          "name": "user",
          "type": "address"
        },
        {
          "indexed": true,
          "internalType": "address",
          "name": "token",
          "type": "address"
        },
        {
          "indexed": false,
          "internalType": "uint256",
          "name": "amount",
          "type": "uint256"
        }
      ],
      "name": "CollateralWithdrawn",
      "type": "event"
    },
    {
      "anonymous": false,
      "inputs": [
        {
          "indexed": true,
          "internalType": "uint256",
          "name": "loanId",
          "type": "uint256"
        },
        {
          "indexed": false,
          "internalType": "uint256",
          "name": "healthFactor",
          "type": "uint256"
        }
      ],
      "name": "HealthFactorUpdated",
      "type": "event"
    },
    {
      "anonymous": false,
      "inputs": [
        {
          "indexed": true,
          "internalType": "uint256",
          "name": "loanId",
          "type": "uint256"
        },
        {
          "indexed": false,
          "internalType": "uint256",
          "name": "interest",
          "type": "uint256"
        }
      ],
      "name": "InterestAccrued",
      "type": "event"
    },
    {
      "anonymous": false,
      "inputs": [
        {
          "indexed": true,
          "internalType": "uint256",
          "name": "loanId",
          "type": "uint256"
        },
        {
          "indexed": true,
          "internalType": "address",
          "name": "liquidator",
          "type": "address"
        },
        {
          "indexed": false,
          "internalType": "uint256",
          "name": "collateralSeized",
          "type": "uint256"
        }
      ],
      "name": "LiquidationExecuted",
      "type": "event"
    },
    {
      "anonymous": false,
      "inputs": [
        {
          "indexed": true,
          "internalType": "uint256",
          "name": "loanId",
          "type": "uint256"
        },
        {
          "indexed": true,
          "internalType": "address",
          "name": "liquidator",
          "type": "address"
        },
        {
          "indexed": false,
          "internalType": "uint256",
          "name": "debtCovered",
          "type": "uint256"
        },
        {
          "indexed": false,
          "internalType": "uint256",
          "name": "collateralSeized",
          "type": "uint256"
        }
      ],
      "name": "LiquidationTriggered",
      "type": "event"
    },
    {
      "anonymous": false,
      "inputs": [
        {
          "indexed": true,
          "internalType": "address",
          "name": "liquidator",
          "type": "address"
        },
        {
          "indexed": false,
          "internalType": "uint256",
          "name": "amount",
          "type": "uint256"
        }
      ],
      "name": "LiquidatorRewardClaimed",
      "type": "event"
    },
    {
      "anonymous": false,
      "inputs": [
        {
          "indexed": true,
          "internalType": "uint256",
          "name": "loanId",
          "type": "uint256"
        },
        {
          "indexed": true,
          "internalType": "address",
          "name": "borrower",
          "type": "address"
        },
        {
          "indexed": true,
          "internalType": "address",
          "name": "lender",
          "type": "address"
        },
        {
          "indexed": false,
          "internalType": "uint256",
          "name": "amount",
          "type": "uint256"
        }
      ],
      "name": "LoanCreated",
      "type": "event"
    },
    {
      "anonymous": false,
      "inputs": [
        {
          "indexed": true,
          "internalType": "uint256",
          "name": "loanId",
          "type": "uint256"
        },
        {
          "indexed": false,
          "internalType": "uint256",
          "name": "amount",
          "type": "uint256"
        }
      ],
      "name": "LoanRepaid",
      "type": "event"
    },
    {
      "anonymous": false,
      "inputs": [
        {
          "indexed": true,
          "internalType": "uint256",
          "name": "lendOrderId",
          "type": "uint256"
        },
        {
          "indexed": true,
          "internalType": "uint256",
          "name": "borrowOrderId",
          "type": "uint256"
        },
        {
          "indexed": false,
          "internalType": "uint256",
          "name": "amount",
          "type": "uint256"
        }
      ],
      "name": "OrderMatched",
      "type": "event"
    },
    {
      "anonymous": false,
      "inputs": [
        {
          "indexed": true,
          "internalType": "uint256",
          "name": "orderId",
          "type": "uint256"
        },
        {
          "indexed": true,
          "internalType": "address",
          "name": "user",
          "type": "address"
        },
        {
          "indexed": false,
          "internalType": "enum ILegosCore.OrderType",
          "name": "orderType",
          "type": "uint8"
        },
        {
          "indexed": false,
          "internalType": "uint256",
          "name": "amount",
          "type": "uint256"
        }
      ],
      "name": "OrderPlaced",
      "type": "event"
    },
    {
      "anonymous": false,
      "inputs": [
        {
          "indexed": true,
          "internalType": "address",
          "name": "previousOwner",
          "type": "address"
        },
        {
          "indexed": true,
          "internalType": "address",
          "name": "newOwner",
          "type": "address"
        }
      ],
      "name": "OwnershipTransferred",
      "type": "event"
    },
    {
      "anonymous": false,
      "inputs": [
        {
          "indexed": true,
          "internalType": "address",
          "name": "asset",
          "type": "address"
        },
        {
          "indexed": false,
          "internalType": "uint256",
          "name": "newPrice",
          "type": "uint256"
        }
      ],
      "name": "PriceUpdated",
      "type": "event"
    },
    {
      "anonymous": false,
      "inputs": [
        {
          "indexed": true,
          "internalType": "uint256",
          "name": "loanId",
          "type": "uint256"
        }
      ],
      "name": "RiskLoanAdded",
      "type": "event"
    },
    {
      "anonymous": false,
      "inputs": [
        {
          "indexed": true,
          "internalType": "uint256",
          "name": "loanId",
          "type": "uint256"
        }
      ],
      "name": "RiskLoanRemoved",
      "type": "event"
    },
    {
      "anonymous": false,
      "inputs": [
        {
          "indexed": true,
          "internalType": "address",
          "name": "asset",
          "type": "address"
        },
        {
          "components": [
            {
              "internalType": "uint256",
              "name": "maxLTV",
              "type": "uint256"
            },
            {
              "internalType": "uint256",
              "name": "liquidationThreshold",
              "type": "uint256"
            },
            {
              "internalType": "uint256",
              "name": "liquidationPenalty",
              "type": "uint256"
            },
            {
              "internalType": "uint256",
              "name": "minCollateralRatio",
              "type": "uint256"
            },
            {
              "internalType": "bool",
              "name": "isEnabled",
              "type": "bool"
            }
          ],
          "indexed": false,
          "internalType": "struct ILegosCore.RiskParameters",
          "name": "params",
          "type": "tuple"
        }
      ],
      "name": "RiskParametersUpdated",
      "type": "event"
    },
    {
      "inputs": [],
      "name": "HEALTH_FACTOR_LIQUIDATION_THRESHOLD",
      "outputs": [
        {
          "internalType": "uint256",
          "name": "",
          "type": "uint256"
        }
      ],
      "stateMutability": "view",
      "type": "function"
    },
    {
      "inputs": [],
      "name": "LIQUIDATION_INCENTIVE",
      "outputs": [
        {
          "internalType": "uint256",
          "name": "",
          "type": "uint256"
        }
      ],
      "stateMutability": "view",
      "type": "function"
    },
    {
      "inputs": [],
      "name": "MAX_LIQUIDATION_CLOSE_FACTOR",
      "outputs": [
        {
          "internalType": "uint256",
          "name": "",
          "type": "uint256"
        }
      ],
      "stateMutability": "view",
      "type": "function"
    },
    {
      "inputs": [],
      "name": "PRICE_DEVIATION_THRESHOLD",
      "outputs": [
        {
          "internalType": "uint256",
          "name": "",
          "type": "uint256"
        }
      ],
      "stateMutability": "view",
      "type": "function"
    },
    {
      "inputs": [
        {
          "internalType": "uint256",
          "name": "loanId",
          "type": "uint256"
        }
      ],
      "name": "addToRiskMonitoring",
      "outputs": [],
      "stateMutability": "nonpayable",
      "type": "function"
    },
    {
      "inputs": [
        {
          "internalType": "address",
          "name": "",
          "type": "address"
        }
      ],
      "name": "assetPrices",
      "outputs": [
        {
          "internalType": "uint256",
          "name": "",
          "type": "uint256"
        }
      ],
      "stateMutability": "view",
      "type": "function"
    },
    {
      "inputs": [
        {
          "internalType": "address",
          "name": "",
          "type": "address"
        }
      ],
      "name": "assetRiskParams",
      "outputs": [
        {
          "internalType": "uint256",
          "name": "maxLTV",
          "type": "uint256"
        },
        {
          "internalType": "uint256",
          "name": "liquidationThreshold",
          "type": "uint256"
        },
        {
          "internalType": "uint256",
          "name": "liquidationPenalty",
          "type": "uint256"
        },
        {
          "internalType": "uint256",
          "name": "minCollateralRatio",
          "type": "uint256"
        },
        {
          "internalType": "bool",
          "name": "isEnabled",
          "type": "bool"
        }
      ],
      "stateMutability": "view",
      "type": "function"
    },
    {
      "inputs": [
        {
          "internalType": "uint256",
          "name": "loanId",
          "type": "uint256"
        }
      ],
      "name": "calculateHealthFactor",
      "outputs": [
        {
          "internalType": "uint256",
          "name": "healthFactor",
          "type": "uint256"
        }
      ],
      "stateMutability": "view",
      "type": "function"
    },
    {
      "inputs": [],
      "name": "claimLiquidatorRewards",
      "outputs": [],
      "stateMutability": "nonpayable",
      "type": "function"
    },
    {
      "inputs": [],
      "name": "clob",
      "outputs": [
        {
          "internalType": "contract LegosCLOB",
          "name": "",
          "type": "address"
        }
      ],
      "stateMutability": "view",
      "type": "function"
    },
    {
      "inputs": [],
      "name": "getLoansAtRisk",
      "outputs": [
        {
          "internalType": "uint256[]",
          "name": "atRiskLoans",
          "type": "uint256[]"
        }
      ],
      "stateMutability": "view",
      "type": "function"
    },
    {
      "inputs": [],
      "name": "getRiskMetrics",
      "outputs": [
        {
          "internalType": "uint256",
          "name": "totalLoans",
          "type": "uint256"
        },
        {
          "internalType": "uint256",
          "name": "loansAtRisk",
          "type": "uint256"
        },
        {
          "internalType": "uint256",
          "name": "avgHealthFactor",
          "type": "uint256"
        }
      ],
      "stateMutability": "view",
      "type": "function"
    },
    {
      "inputs": [],
      "name": "getTotalValueAtRisk",
      "outputs": [
        {
          "internalType": "uint256",
          "name": "totalVaR",
          "type": "uint256"
        }
      ],
      "stateMutability": "view",
      "type": "function"
    },
    {
      "inputs": [],
      "name": "healthCheckInterval",
      "outputs": [
        {
          "internalType": "uint256",
          "name": "",
          "type": "uint256"
        }
      ],
      "stateMutability": "view",
      "type": "function"
    },
    {
      "inputs": [
        {
          "internalType": "uint256",
          "name": "loanId",
          "type": "uint256"
        }
      ],
      "name": "isLiquidationEligible",
      "outputs": [
        {
          "internalType": "bool",
          "name": "isEligible",
          "type": "bool"
        }
      ],
      "stateMutability": "view",
      "type": "function"
    },
    {
      "inputs": [
        {
          "internalType": "uint256",
          "name": "",
          "type": "uint256"
        }
      ],
      "name": "lastHealthCheckTime",
      "outputs": [
        {
          "internalType": "uint256",
          "name": "",
          "type": "uint256"
        }
      ],
      "stateMutability": "view",
      "type": "function"
    },
    {
      "inputs": [
        {
          "internalType": "uint256",
          "name": "loanId",
          "type": "uint256"
        },
        {
          "internalType": "uint256",
          "name": "debtToCover",
          "type": "uint256"
        }
      ],
      "name": "liquidateLoan",
      "outputs": [],
      "stateMutability": "nonpayable",
      "type": "function"
    },
    {
      "inputs": [
        {
          "internalType": "address",
          "name": "",
          "type": "address"
        }
      ],
      "name": "liquidatorRewards",
      "outputs": [
        {
          "internalType": "uint256",
          "name": "",
          "type": "uint256"
        }
      ],
      "stateMutability": "view",
      "type": "function"
    },
    {
      "inputs": [
        {
          "internalType": "uint256",
          "name": "",
          "type": "uint256"
        }
      ],
      "name": "loanHealthFactors",
      "outputs": [
        {
          "internalType": "uint256",
          "name": "",
          "type": "uint256"
        }
      ],
      "stateMutability": "view",
      "type": "function"
    },
    {
      "inputs": [],
      "name": "owner",
      "outputs": [
        {
          "internalType": "address",
          "name": "",
          "type": "address"
        }
      ],
      "stateMutability": "view",
      "type": "function"
    },
    {
      "inputs": [],
      "name": "pause",
      "outputs": [],
      "stateMutability": "nonpayable",
      "type": "function"
    },
    {
      "inputs": [],
      "name": "performHealthCheck",
      "outputs": [],
      "stateMutability": "nonpayable",
      "type": "function"
    },
    {
      "inputs": [],
      "name": "renounceOwnership",
      "outputs": [],
      "stateMutability": "nonpayable",
      "type": "function"
    },
    {
      "inputs": [
        {
          "internalType": "uint256",
          "name": "",
          "type": "uint256"
        }
      ],
      "name": "riskLoans",
      "outputs": [
        {
          "internalType": "uint256",
          "name": "",
          "type": "uint256"
        }
      ],
      "stateMutability": "view",
      "type": "function"
    },
    {
      "inputs": [
        {
          "internalType": "address",
          "name": "asset",
          "type": "address"
        },
        {
          "components": [
            {
              "internalType": "uint256",
              "name": "maxLTV",
              "type": "uint256"
            },
            {
              "internalType": "uint256",
              "name": "liquidationThreshold",
              "type": "uint256"
            },
            {
              "internalType": "uint256",
              "name": "liquidationPenalty",
              "type": "uint256"
            },
            {
              "internalType": "uint256",
              "name": "minCollateralRatio",
              "type": "uint256"
            },
            {
              "internalType": "bool",
              "name": "isEnabled",
              "type": "bool"
            }
          ],
          "internalType": "struct ILegosCore.RiskParameters",
          "name": "params",
          "type": "tuple"
        }
      ],
      "name": "setAssetRiskParameters",
      "outputs": [],
      "stateMutability": "nonpayable",
      "type": "function"
    },
    {
      "inputs": [],
      "name": "totalLiquidatorRewards",
      "outputs": [
        {
          "internalType": "uint256",
          "name": "",
          "type": "uint256"
        }
      ],
      "stateMutability": "view",
      "type": "function"
    },
    {
      "inputs": [
        {
          "internalType": "address",
          "name": "newOwner",
          "type": "address"
        }
      ],
      "name": "transferOwnership",
      "outputs": [],
      "stateMutability": "nonpayable",
      "type": "function"
    },
    {
      "inputs": [],
      "name": "unpause",
      "outputs": [],
      "stateMutability": "nonpayable",
      "type": "function"
    },
    {
      "inputs": [
        {
          "internalType": "address",
          "name": "asset",
          "type": "address"
        },
        {
          "internalType": "uint256",
          "name": "price",
          "type": "uint256"
        }
      ],
      "name": "updateAssetPrice",
      "outputs": [],
      "stateMutability": "nonpayable",
      "type": "function"
    },
    {
      "inputs": [
        {
          "internalType": "uint256",
          "name": "newInterval",
          "type": "uint256"
        }
      ],
      "name": "updateHealthCheckInterval",
      "outputs": [],
      "stateMutability": "nonpayable",
      "type": "function"
    }
  ],
  "bytecode": "0x60a03461010057601f620018af38819003918201601f19168301916001600160401b038311848410176101055780849260409485528339810103126101005760206100498261011b565b916001600160a01b0391829161005f910161011b565b169182156100e757600080546001600160a01b03198116851782556040519491908416907f8be0079c531659141344cd1fd0a4f28419497f9722a3daafe3b4186f6b6457e09080a360018055610e106008551660805261177f90816200013082396080518181816103760152818161067901528181610f29015281816111e701526115150152f35b604051631e4fbdf760e01b815260006004820152602490fd5b600080fd5b634e487b7160e01b600052604160045260246000fd5b51906001600160a01b03821682036101005756fe6040608081526004908136101561001557600080fd5b600091823560e01c806305b120f5146111cf5780631449b58d146111a957806323a4deb5146111825780633728c97f14610fde5780633bbd8c5a14610f585780633bd9918d14610f145780633f4ba83a14610bd757806344650e8314610e7b5780635206f65014610e535780635e72ffb714610e1b5780635e9a523c14610de357806361022a3014610dc4578063662aee3214610d93578063715018a614610d3957806380693dce14610bf35780638456cb5914610bd75780638d6f71d514610bb55780638da5cb5b14610b8d578063940a02c114610b66578063a586d15e14610b2e578063b0de570414610471578063b52a444714610617578063bc44637214610499578063c3525c2814610476578063c66c144a14610471578063cbfe399a1461029b578063d24675441461027e578063e09293471461025b578063eb717d4e146101f45763f2fde38b1461016b57600080fd5b346101f05760203660031901126101f0576101846112f6565b9061018d6113cf565b6001600160a01b039182169283156101da57505082546001600160a01b0319811683178455167f8be0079c531659141344cd1fd0a4f28419497f9722a3daafe3b4186f6b6457e08380a380f35b51631e4fbdf760e01b8152908101849052602490fd5b8280fd5b5090346101f05760203660031901126101f05760a09281906001600160a01b0361021c6112f6565b16815260026020522080549260018201549260ff6002840154926003850154940154169381519586526020860152840152606083015215156080820152f35b50503461027a578160031936011261027a576020906006549051908152f35b5080fd5b50503461027a578160031936011261027a57602090516113888152f35b50823461046e578060031936011261046e57805b60095481101561046a576102c281611311565b90549060031b1c80835260076020908082526102e187862054426113fb565b60085411156102fc575b5050506102f7906116a1565b6102af565b670b1a2bc2ec5000009061030f846114ed565b90848752878452818988205583524288872055837ff32f9f0cd5f805f2ea36967269eed29313642bbb6d5077755b24cb3562435a0c848a51848152a210610357575b806102eb565b8551631c3d878d60e31b8152858101839052602491906101a0808285817f00000000000000000000000000000000000000000000000000000000000000006001600160a01b03165afa918215610460576103bc928892839291610422575b50506114e0565b91611388928381029381850414901517156104115750917fb61e5a741af1dacd5c7dc4e44ffe7ef40d34177649e3a07622c2e9abbd5cfa13878693846102f79796612710845193048352820152a39085610351565b634e487b7160e01b86526011875285fd5b610445935080919250903d10610459575b61043d8183611390565b810190611465565b509a50505050505050925050508a806103b5565b503d610433565b89513d89823e3d90fd5b5080f35b80fd5b6113b2565b50503461027a578160031936011261027a5760209051670de0b6b3a76400008152f35b50823461046e578060031936011261046e5760095492919080805b8581106105c157506104dd6104c8826116b0565b916104d586519384611390565b8083526116b0565b6020958287019491601f190136863783805b828210610535575050505083519485948186019282875251809352850193925b82811061051e57505050500390f35b83518552869550938101939281019260010161050f565b61055e6710a741a462780000610550849b9897999a9b611311565b929054600393841b1c6114ed565b1061057b575b509061056f906116a1565b909796959394976104ef565b61058483611311565b9054911b1c87518210156105ae57816105a8918861056f9460051b8b0101526116a1565b90610564565b634e487b7160e01b865260328552602486fd5b6710a741a4627800006105e86105dc83989594969798611311565b90549060031b1c6114ed565b10610602575b6105f7906116a1565b9493929091946104b4565b9261060f6105f7916116a1565b9390506105ee565b50346101f057816003193601126101f0578035602492833592610638611607565b8394670de0b6b3a764000061064c856114ed565b1015610b1f578251631c3d878d60e31b81528281018590526101a0929091906001600160a01b03848484817f000000000000000000000000000000000000000000000000000000000000000085165afa938415610b15578a8095819282988392610ade575b505084811015610acc57610abc576106c990866114e0565b98611388998a81029a818c041490151715610aaa57612710809a04809111610aa2575b501696878a5260209360028552868b20918751996107098b61135e565b83548b5260019b8c850154888d015260028501549b8c8b820152608060ff8860039889810154606086015201541615159101528c1c9a820197888311610a9057826107548a8e61141e565b0498818a11610a69575b5050868d8c8b51838101916323b872dd60e01b8352338b8301523060448301526064820152606481526107908161135e565b519082805af115610a2f578c518c903d610a625750508c3b155b610a4c5788518781019063a9059cbb60e01b82523388820152896044820152604481526080810181811067ffffffffffffffff821117610a39578b525188918f919082855af115610a2f578c518c903d610a28575050803b155b610a1357506101f4808802908882041488151715610a0157916108478d8a8d948f989796049133815260058b522061083d8282546114e0565b90556006546114e0565b6006558c896108558c6114ed565b918c8152868a522055111561089c575b50508451968752505084015233927fb61e5a741af1dacd5c7dc4e44ffe7ef40d34177649e3a07622c2e9abbd5cfa139190a3805580f35b90918a999897969594939a905b6108bf575b88999a508394959697989250610865565b60098054808310156109fa57886108d584611311565b905490861b1c14610906575050906108f6899a9b94959697989993926116a1565b9091929897969594939a996108a9565b9091600019918281019081116109e8579061093261092661094b93611311565b905490871b1c91611311565b90919082549060031b91821b91600019901b1916179055565b81549b8c156109d75750807fb61e5a741af1dacd5c7dc4e44ffe7ef40d34177649e3a07622c2e9abbd5cfa1398999a9b9c019261098784611311565b81939154921b1b191690555585895260078252888481205581528783812055847f25de5bacaf53aa279c7ba4ff7c660d3ec3fcfd42606627084fed858fb2f608d08980a2879695949338806108ae565b634e487b7160e01b8c52603185528bfd5b634e487b7160e01b8d52601186528d8dfd5b50506108ae565b634e487b7160e01b8d5260118552858dfd5b8851635274afe760e01b815294850152505050fd5b1415610804565b88513d8e823e3d90fd5b50634e487b7160e01b8f5260418752878ffd5b8851635274afe760e01b81528086018e90528690fd5b14156107aa565b919b509750818802881589820484141715610a905790610a8891611431565b99388061075e565b634e487b7160e01b8e5260118652868efd5b9950386106ec565b634e487b7160e01b8c5260118452848cfd5b8751638bd79d6d60e01b81528490fd5b634e487b7160e01b8d5260218552858dfd5b93509396505050610afc929550803d106104595761043d8183611390565b98509d9a5097509a9750505050509591969038806106b1565b86513d8c823e3d90fd5b5090516332c9fea960e11b8152fd5b50503461027a57602036600319011261027a5760209181906001600160a01b03610b566112f6565b1681526005845220549051908152f35b50346101f05760203660031901126101f05760209282913581526007845220549051908152f35b50503461027a578160031936011261027a57905490516001600160a01b039091168152602090f35b83823461027a57602036600319011261027a57610bd06113cf565b3560085580f35b833461046e578060031936011261046e57610bf06113cf565b80f35b5090346101f05760c03660031901126101f057610c0e6112f6565b60a0366023190112610d3557815191610c268361135e565b60243583526020830190604435825280840160643581526060850192608435845260a435948515158603610d315760808701958652610c636113cf565b86518251809111908115610d25575b508015610d19575b610d09579160a09593917fc77f13725df4b3d02578d1750fc68fe9c3d629a64d63dd9c9e1cd407d1ca5285979593600180891b031698898b526002602052838b20965196878155825160018201558351600282015585516003820155018551151560ff80198354169116179055825195865251602086015251908401525160608301525115156080820152a280f35b8351631a2a2cff60e21b81528890fd5b50612710835111610c7a565b61271091501138610c72565b8880fd5b8380fd5b833461046e578060031936011261046e57610d526113cf565b80546001600160a01b03198116825581906001600160a01b03167f8be0079c531659141344cd1fd0a4f28419497f9722a3daafe3b4186f6b6457e08280a380f35b50913461046e57602036600319011261046e5750670de0b6b3a7640000610dbc602093356114ed565b109051908152f35b50503461027a578160031936011261027a576020906008549051908152f35b50503461027a57602036600319011261027a5760209181906001600160a01b03610e0b6112f6565b1681526003845220549051908152f35b50346101f05760203660031901126101f057359160095483101561046e5750610e45602092611311565b91905490519160031b1c8152f35b833461046e578060031936011261046e57610e6c611607565b610e7461162a565b6001805580f35b50503461027a578160031936011261027a57816009549183805b848110610ecb575060609484908115610ec357610eb29250611431565b915b81519384526020840152820152f35b505091610eb4565b6710a741a462780000610eea610ee36105dc84611311565b80986114e0565b9610610eff575b610efa906116a1565b610e95565b92610f0c610efa916116a1565b939050610ef1565b50503461027a578160031936011261027a57517f00000000000000000000000000000000000000000000000000000000000000006001600160a01b03168152602090f35b5090346101f05760203660031901126101f05760095482359268010000000000000000821015610fcb575082610932826001610f979401600955611311565b818352600760205242908320557f1fcd4d08ba042529b20c27cf08f97b3ae4037a396ccd20a6c471ff86ce9b68f78280a280f35b634e487b7160e01b855260419052602484fd5b5090346101f057806003193601126101f057610ff86112f6565b91602435926110056113cf565b83156111745760018060a01b03169182855260039160209280845282872086815491558061105d575b505050927f0d86730737b142fc160892fa8a0f2db687a92a0e294d1ad70624cf5acef03b84929351908152a280f35b868111156111445761106f87826113fb565b61271090818102918183041490151715611131576101f49161109091611431565b1161109c575b8061102e565b9093865b60095481101561110557806110b761110092611311565b905490851b1c7ff32f9f0cd5f805f2ea36967269eed29313642bbb6d5077755b24cb3562435a0c87878c6110ea856114ed565b9181868493528d855220558851908152a26116a1565b6110a0565b5093507f0d86730737b142fc160892fa8a0f2db687a92a0e294d1ad70624cf5acef03b84905038611096565b634e487b7160e01b895260118452602489fd5b61114e81886113fb565b61271090818102918183041490151715611131576101f49161116f91611431565b611090565b50905162bfc92160e01b8152fd5b50913461046e57602036600319011261046e57506111a2602092356114ed565b9051908152f35b50346101f05760203660031901126101f057602092818392358252845220549051908152f35b5091903461027a578160031936011261027a576009547f00000000000000000000000000000000000000000000000000000000000000006001600160a01b031683805b838110611223576020868651908152f35b61122c81611311565b9054865191631c3d878d60e31b835260031b1c888201526101a08082602481885afa80156112ec57848593869387936112af575b50506112769291611270916114e0565b926116c8565b9080821061128f575b505061128a906116a1565b611212565b966112a16112a79261128a94996113fb565b906114e0565b95903861127f565b611270955061127694506112d3935080919250903d106104595761043d8183611390565b509a509b98509650505050509050909493819250611260565b87513d86823e3d90fd5b600435906001600160a01b038216820361130c57565b600080fd5b6009548110156113485760096000527f6e1540171b6c0c960b71a7020d9f60077f6af931a8bbf590da0223dacf75c7af0190600090565b634e487b7160e01b600052603260045260246000fd5b60a0810190811067ffffffffffffffff82111761137a57604052565b634e487b7160e01b600052604160045260246000fd5b90601f8019910116810190811067ffffffffffffffff82111761137a57604052565b3461130c57600036600319011261130c5760206040516101f48152f35b6000546001600160a01b031633036113e357565b60405163118cdaa760e01b8152336004820152602490fd5b9190820391821161140857565b634e487b7160e01b600052601160045260246000fd5b8181029291811591840414171561140857565b811561143b570490565b634e487b7160e01b600052601260045260246000fd5b51906001600160a01b038216820361130c57565b90816101a091031261130c5780519161148060208301611451565b9161148d60408201611451565b9160608201519160808101519160a08201519160c08101519160e082015191610100810151916114c06101208301611451565b9161014081015191610180610160830151920151600481101561130c5790565b9190820180921161140857565b604051631c3d878d60e31b815260048101919091526001600160a01b03906101a080826024817f000000000000000000000000000000000000000000000000000000000000000087165afa9283156115fb576115b99360008094819482936115bc575b50506115669161155f916114e0565b92846116c8565b921660005260026020526040600020916040516115828161135e565b83548152608060ff600460018701549687602086015260028101546040860152600381015460608601520154161515910152611705565b90565b61155f965061156695506115e0935080919250903d106104595761043d8183611390565b509c9a509c9850965050505050905090959492819250611550565b6040513d6000823e3d90fd5b600260015414611618576002600155565b604051633ee5aeb560e01b8152600490fd5b600033815260056020526040812090815491821561169c57819055611651826006546113fb565b60065580808080853382f11561169057506040519081527f2c5a9060a4e36a5adbacc6a9547e7d157125aa70adc013977d6687594477b01260203392a2565b604051903d90823e3d90fd5b505050565b60001981146114085760010190565b67ffffffffffffffff811161137a5760051b60200190565b6001600160a01b03166000908152600360205260409020549081156116fe57670de0b6b3a7640000916116fa9161141e565b0490565b5050600090565b9190918215611740576127109161171b9161141e565b0490670de0b6b3a764000091828102928184041490151715611408576115b991611431565b5050506000199056fea26469706673582212208ee04060442f69e89ab896f6bc95d7dcbe47540c5cedb31a58392624f07773b564736f6c63430008140033",
  "linkReferences": {},
  "deployedLinkReferences": {}
}